{
  "address": "0x265de91C3aD0baE6aFa9B37Ae854F28F135E8027",
  "abi": [
    {
      "inputs": [],
      "stateMutability": "nonpayable",
      "type": "constructor"
    },
    {
      "anonymous": false,
      "inputs": [
        {
          "indexed": true,
          "internalType": "address",
          "name": "owner",
          "type": "address"
        },
        {
          "indexed": true,
          "internalType": "address",
          "name": "approved",
          "type": "address"
        },
        {
          "indexed": true,
          "internalType": "uint256",
          "name": "tokenId",
          "type": "uint256"
        }
      ],
      "name": "Approval",
      "type": "event"
    },
    {
      "anonymous": false,
      "inputs": [
        {
          "indexed": true,
          "internalType": "address",
          "name": "owner",
          "type": "address"
        },
        {
          "indexed": true,
          "internalType": "address",
          "name": "operator",
          "type": "address"
        },
        {
          "indexed": false,
          "internalType": "bool",
          "name": "approved",
          "type": "bool"
        }
      ],
      "name": "ApprovalForAll",
      "type": "event"
    },
    {
      "anonymous": false,
      "inputs": [
        {
          "indexed": false,
          "internalType": "uint256",
          "name": "_fromTokenId",
          "type": "uint256"
        },
        {
          "indexed": false,
          "internalType": "uint256",
          "name": "_toTokenId",
          "type": "uint256"
        }
      ],
      "name": "BatchMetadataUpdate",
      "type": "event"
    },
    {
      "anonymous": false,
      "inputs": [
        {
          "indexed": false,
          "internalType": "uint256",
          "name": "_tokenId",
          "type": "uint256"
        }
      ],
      "name": "MetadataUpdate",
      "type": "event"
    },
    {
      "anonymous": false,
      "inputs": [
        {
          "indexed": true,
          "internalType": "address",
          "name": "from",
          "type": "address"
        },
        {
          "indexed": true,
          "internalType": "address",
          "name": "to",
          "type": "address"
        },
        {
          "indexed": true,
          "internalType": "uint256",
          "name": "tokenId",
          "type": "uint256"
        }
      ],
      "name": "Transfer",
      "type": "event"
    },
    {
      "inputs": [
        {
          "internalType": "address",
          "name": "to",
          "type": "address"
        },
        {
          "internalType": "uint256",
          "name": "tokenId",
          "type": "uint256"
        }
      ],
      "name": "approve",
      "outputs": [],
      "stateMutability": "nonpayable",
      "type": "function"
    },
    {
      "inputs": [
        {
          "internalType": "uint256",
          "name": "",
          "type": "uint256"
        }
      ],
      "name": "attributes",
      "outputs": [
        {
          "internalType": "enum MarketClash.Class",
          "name": "Class",
          "type": "uint8"
        },
        {
          "internalType": "uint8",
          "name": "attack",
          "type": "uint8"
        },
        {
          "internalType": "uint8",
          "name": "defence",
          "type": "uint8"
        }
      ],
      "stateMutability": "view",
      "type": "function"
    },
    {
      "inputs": [
        {
          "internalType": "address",
          "name": "owner",
          "type": "address"
        }
      ],
      "name": "balanceOf",
      "outputs": [
        {
          "internalType": "uint256",
          "name": "",
          "type": "uint256"
        }
      ],
      "stateMutability": "view",
      "type": "function"
    },
    {
      "inputs": [
        {
          "internalType": "uint256",
          "name": "",
          "type": "uint256"
        }
      ],
      "name": "classMapping",
      "outputs": [
        {
          "internalType": "string",
          "name": "",
          "type": "string"
        }
      ],
      "stateMutability": "view",
      "type": "function"
    },
    {
      "inputs": [
        {
          "internalType": "uint256[]",
          "name": "_arrayOfCards",
          "type": "uint256[]"
        }
      ],
      "name": "createDeck",
      "outputs": [],
      "stateMutability": "nonpayable",
      "type": "function"
    },
    {
      "inputs": [
        {
          "internalType": "address",
          "name": "",
          "type": "address"
        },
        {
          "internalType": "uint256",
          "name": "",
          "type": "uint256"
        }
      ],
      "name": "deckOfPlayer",
      "outputs": [
        {
          "internalType": "uint256",
          "name": "",
          "type": "uint256"
        }
      ],
      "stateMutability": "view",
      "type": "function"
    },
    {
      "inputs": [
        {
          "internalType": "uint256",
          "name": "tokenId",
          "type": "uint256"
        }
      ],
      "name": "getApproved",
      "outputs": [
        {
          "internalType": "address",
          "name": "",
          "type": "address"
        }
      ],
      "stateMutability": "view",
      "type": "function"
    },
    {
      "inputs": [],
      "name": "getBtcPrice",
      "outputs": [
        {
          "internalType": "uint256",
          "name": "",
          "type": "uint256"
        }
      ],
      "stateMutability": "view",
      "type": "function"
    },
    {
      "inputs": [],
      "name": "getETHPrice",
      "outputs": [
        {
          "internalType": "uint256",
          "name": "",
          "type": "uint256"
        }
      ],
      "stateMutability": "view",
      "type": "function"
    },
    {
      "inputs": [],
      "name": "getLinkPrice",
      "outputs": [
        {
          "internalType": "uint256",
          "name": "",
          "type": "uint256"
        }
      ],
      "stateMutability": "view",
      "type": "function"
    },
    {
      "inputs": [
        {
          "internalType": "uint256",
          "name": "multiplier",
          "type": "uint256"
        }
      ],
      "name": "getStatBtc",
      "outputs": [
        {
          "internalType": "uint256",
          "name": "",
          "type": "uint256"
        }
      ],
      "stateMutability": "view",
      "type": "function"
    },
    {
      "inputs": [
        {
          "internalType": "uint256",
          "name": "multiplier",
          "type": "uint256"
        }
      ],
      "name": "getStatETH",
      "outputs": [
        {
          "internalType": "uint256",
          "name": "",
          "type": "uint256"
        }
      ],
      "stateMutability": "view",
      "type": "function"
    },
    {
      "inputs": [
        {
          "internalType": "uint256",
          "name": "multiplier",
          "type": "uint256"
        }
      ],
      "name": "getStatLink",
      "outputs": [
        {
          "internalType": "uint256",
          "name": "",
          "type": "uint256"
        }
      ],
      "stateMutability": "view",
      "type": "function"
    },
    {
      "inputs": [
        {
          "internalType": "uint256",
          "name": "",
          "type": "uint256"
        }
      ],
      "name": "imageMapping",
      "outputs": [
        {
          "internalType": "string",
          "name": "",
          "type": "string"
        }
      ],
      "stateMutability": "view",
      "type": "function"
    },
    {
      "inputs": [
        {
          "internalType": "address",
          "name": "owner",
          "type": "address"
        },
        {
          "internalType": "address",
          "name": "operator",
          "type": "address"
        }
      ],
      "name": "isApprovedForAll",
      "outputs": [
        {
          "internalType": "bool",
          "name": "",
          "type": "bool"
        }
      ],
      "stateMutability": "view",
      "type": "function"
    },
    {
      "inputs": [
        {
          "internalType": "address",
          "name": "to",
          "type": "address"
        },
        {
          "internalType": "enum MarketClash.Class",
          "name": "_class",
          "type": "uint8"
        }
      ],
      "name": "mint",
      "outputs": [],
      "stateMutability": "nonpayable",
      "type": "function"
    },
    {
      "inputs": [],
      "name": "name",
      "outputs": [
        {
          "internalType": "string",
          "name": "",
          "type": "string"
        }
      ],
      "stateMutability": "view",
      "type": "function"
    },
    {
      "inputs": [
        {
          "internalType": "enum MarketClash.Class",
          "name": "_firstCardClass",
          "type": "uint8"
        },
        {
          "internalType": "enum MarketClash.Class",
          "name": "_secondCardClass",
          "type": "uint8"
        },
        {
          "internalType": "enum MarketClash.Class",
          "name": "_thirdCardClass",
          "type": "uint8"
        }
      ],
      "name": "openPack",
      "outputs": [],
      "stateMutability": "nonpayable",
      "type": "function"
    },
    {
      "inputs": [
        {
          "internalType": "uint256",
          "name": "tokenId",
          "type": "uint256"
        }
      ],
      "name": "ownerOf",
      "outputs": [
        {
          "internalType": "address",
          "name": "",
          "type": "address"
        }
      ],
      "stateMutability": "view",
      "type": "function"
    },
    {
      "inputs": [
        {
          "internalType": "address",
          "name": "from",
          "type": "address"
        },
        {
          "internalType": "address",
          "name": "to",
          "type": "address"
        },
        {
          "internalType": "uint256",
          "name": "tokenId",
          "type": "uint256"
        }
      ],
      "name": "safeTransferFrom",
      "outputs": [],
      "stateMutability": "nonpayable",
      "type": "function"
    },
    {
      "inputs": [
        {
          "internalType": "address",
          "name": "from",
          "type": "address"
        },
        {
          "internalType": "address",
          "name": "to",
          "type": "address"
        },
        {
          "internalType": "uint256",
          "name": "tokenId",
          "type": "uint256"
        },
        {
          "internalType": "bytes",
          "name": "data",
          "type": "bytes"
        }
      ],
      "name": "safeTransferFrom",
      "outputs": [],
      "stateMutability": "nonpayable",
      "type": "function"
    },
    {
      "inputs": [
        {
          "internalType": "address",
          "name": "operator",
          "type": "address"
        },
        {
          "internalType": "bool",
          "name": "approved",
          "type": "bool"
        }
      ],
      "name": "setApprovalForAll",
      "outputs": [],
      "stateMutability": "nonpayable",
      "type": "function"
    },
    {
      "inputs": [
        {
          "internalType": "bytes4",
          "name": "interfaceId",
          "type": "bytes4"
        }
      ],
      "name": "supportsInterface",
      "outputs": [
        {
          "internalType": "bool",
          "name": "",
          "type": "bool"
        }
      ],
      "stateMutability": "view",
      "type": "function"
    },
    {
      "inputs": [],
      "name": "symbol",
      "outputs": [
        {
          "internalType": "string",
          "name": "",
          "type": "string"
        }
      ],
      "stateMutability": "view",
      "type": "function"
    },
    {
      "inputs": [
        {
          "internalType": "uint256",
          "name": "",
          "type": "uint256"
        }
      ],
      "name": "tokenIdAttack",
      "outputs": [
        {
          "internalType": "uint256",
          "name": "",
          "type": "uint256"
        }
      ],
      "stateMutability": "view",
      "type": "function"
    },
    {
      "inputs": [],
      "name": "tokenIdCounter",
      "outputs": [
        {
          "internalType": "uint256",
          "name": "_value",
          "type": "uint256"
        }
      ],
      "stateMutability": "view",
      "type": "function"
    },
    {
      "inputs": [
        {
          "internalType": "uint256",
          "name": "",
          "type": "uint256"
        }
      ],
      "name": "tokenIdDefense",
      "outputs": [
        {
          "internalType": "uint256",
          "name": "",
          "type": "uint256"
        }
      ],
      "stateMutability": "view",
      "type": "function"
    },
    {
      "inputs": [
        {
          "internalType": "uint256",
          "name": "tokenId",
          "type": "uint256"
        }
      ],
      "name": "tokenURI",
      "outputs": [
        {
          "internalType": "string",
          "name": "",
          "type": "string"
        }
      ],
      "stateMutability": "view",
      "type": "function"
    },
    {
      "inputs": [
        {
          "internalType": "address",
          "name": "from",
          "type": "address"
        },
        {
          "internalType": "address",
          "name": "to",
          "type": "address"
        },
        {
          "internalType": "uint256",
          "name": "tokenId",
          "type": "uint256"
        }
      ],
      "name": "transferFrom",
      "outputs": [],
      "stateMutability": "nonpayable",
      "type": "function"
    },
    {
      "inputs": [
        {
          "internalType": "uint256",
          "name": "number",
          "type": "uint256"
        }
      ],
      "name": "uintToArray",
      "outputs": [
        {
          "internalType": "uint8[]",
          "name": "",
          "type": "uint8[]"
        }
      ],
      "stateMutability": "pure",
      "type": "function"
    }
  ],
  "transactionHash": "0x054f6bcdc432bdd4f41f91d4d00344a4824ec635a1d27e944026fe024f36bd56",
  "args": [],
  "numDeployments": 9,
  "solcInputHash": "bdd223e646ed430580d177e6c2134663",
  "bytecode": "0x601180546001600160a01b03199081167387dce67002e66c17bc0d723fe20d736b80caafda179091556012805482167359f1ec1f10bd7ed9b938431086bc1d9e233ecf411790556013805490911673ac3e04999aefe44d508cb3f9b972b0ecd07c1efb179055600360145560026015556001601655610120604052606c60808181529062002ab760a03960179062000098908262000252565b506040518060a00160405280606c8152602001620029df606c9139601890620000c2908262000252565b506040518060a00160405280606c815260200162002a4b606c9139601990620000ec908262000252565b506000601a55348015620000ff57600080fd5b506040518060400160405280600b81526020016a09ac2e4d6cae886d8c2e6d60ab1b815250604051806040016040528060028152602001614d4b60f01b815250816000908162000150919062000252565b5060016200015f828262000252565b5050601154600e80546001600160a01b039283166001600160a01b031991821617909155601254600f805491841691831691909117905560135460108054919093169116179055506200031e565b634e487b7160e01b600052604160045260246000fd5b600181811c90821680620001d857607f821691505b602082108103620001f957634e487b7160e01b600052602260045260246000fd5b50919050565b601f8211156200024d57600081815260208120601f850160051c81016020861015620002285750805b601f850160051c820191505b81811015620002495782815560010162000234565b5050505b505050565b81516001600160401b038111156200026e576200026e620001ad565b62000286816200027f8454620001c3565b84620001ff565b602080601f831160018114620002be5760008415620002a55750858301515b600019600386901b1c1916600185901b17855562000249565b600085815260208120601f198616915b82811015620002ef57888601518255948401946001909101908401620002ce565b50858210156200030e5787850151600019600388901b60f8161c191681555b5050505050600190811b01905550565b6126b1806200032e6000396000f3fe608060405234801561001057600080fd5b50600436106101da5760003560e01c8063919f064911610104578063b88d4fde116100a2578063d77691ee11610071578063d77691ee14610430578063e7f3be5214610443578063e985e9c514610456578063f17f39b31461046957600080fd5b8063b88d4fde146103b2578063bb92947b146103c5578063c87b56dd146103d8578063d05dcc6a146103eb57600080fd5b80639ba82a33116100de5780639ba82a3314610364578063a22cb46514610384578063a607a8d914610397578063b16045bc1461039f57600080fd5b8063919f06491461033257806395d89b411461035257806398bdf6f51461035a57600080fd5b80633a3610bc1161017c5780636c9e4e251161014b5780636c9e4e25146102e657806370a08231146102f95780637afc86621461030c57806383acda611461031f57600080fd5b80633a3610bc146102a557806342842e0e146102ad5780636352211e146102c0578063691562a0146102d357600080fd5b8063095ea7b3116101b8578063095ea7b3146102475780631ac3a0fb1461025c57806323b872dd1461028a5780632dddd49c1461029d57600080fd5b806301ffc9a7146101df57806306fdde0314610207578063081812fc1461021c575b600080fd5b6101f26101ed366004611ae5565b61047c565b60405190151581526020015b60405180910390f35b61020f61048d565b6040516101fe9190611b59565b61022f61022a366004611b6c565b61051f565b6040516001600160a01b0390911681526020016101fe565b61025a610255366004611ba1565b610546565b005b61027c61026a366004611b6c565b600b6020526000908152604090205481565b6040519081526020016101fe565b61025a610298366004611bcb565b610660565b61027c610691565b61027c610716565b61025a6102bb366004611bcb565b61076c565b61022f6102ce366004611b6c565b610787565b61025a6102e1366004611c16565b6107e7565b61025a6102f4366004611c49565b610b01565b61027c610307366004611cbe565b610c22565b61020f61031a366004611b6c565b610ca8565b61027c61032d366004611b6c565b610d42565b61027c610340366004611b6c565b600c6020526000908152604090205481565b61020f610e20565b60075461027c9081565b610377610372366004611b6c565b610e2f565b6040516101fe9190611cd9565b61025a610392366004611d20565b610ee9565b61027c610ef8565b61027c6103ad366004611b6c565b610f4e565b61025a6103c0366004611d72565b610f59565b61027c6103d3366004611b6c565b610f91565b61020f6103e6366004611b6c565b610f9c565b6104216103f9366004611b6c565b60086020526000908152604090205460ff808216916101008104821691620100009091041683565b6040516101fe93929190611e64565b61020f61043e366004611b6c565b611050565b61027c610451366004611ba1565b611069565b6101f2610464366004611e9e565b61109a565b61025a610477366004611ec8565b6110c8565b6000610487826110e6565b92915050565b60606000805461049c90611f0b565b80601f01602080910402602001604051908101604052809291908181526020018280546104c890611f0b565b80156105155780601f106104ea57610100808354040283529160200191610515565b820191906000526020600020905b8154815290600101906020018083116104f857829003601f168201915b5050505050905090565b600061052a8261110b565b506000908152600460205260409020546001600160a01b031690565b600061055182610787565b9050806001600160a01b0316836001600160a01b0316036105c35760405162461bcd60e51b815260206004820152602160248201527f4552433732313a20617070726f76616c20746f2063757272656e74206f776e656044820152603960f91b60648201526084015b60405180910390fd5b336001600160a01b03821614806105df57506105df813361109a565b6106515760405162461bcd60e51b815260206004820152603d60248201527f4552433732313a20617070726f76652063616c6c6572206973206e6f7420746f60448201527f6b656e206f776e6572206f7220617070726f76656420666f7220616c6c00000060648201526084016105ba565b61065b838361116d565b505050565b61066a33826111db565b6106865760405162461bcd60e51b81526004016105ba90611f45565b61065b83838361123a565b600080601060009054906101000a90046001600160a01b03166001600160a01b031663feaf968c6040518163ffffffff1660e01b815260040160a060405180830381865afa1580156106e7573d6000803e3d6000fd5b505050506040513d601f19601f8201168201806040525081019061070b9190611fac565b509195945050505050565b600080600e60009054906101000a90046001600160a01b03166001600160a01b031663feaf968c6040518163ffffffff1660e01b815260040160a060405180830381865afa1580156106e7573d6000803e3d6000fd5b61065b83838360405180602001604052806000815250610f59565b6000818152600260205260408120546001600160a01b0316806104875760405162461bcd60e51b8152602060048201526018602482015277115490cdcc8c4e881a5b9d985b1a59081d1bdad95b88125160421b60448201526064016105ba565b60008160028111156107fb576107fb611e4e565b14806108185750600181600281111561081657610816611e4e565b145b806108345750600281600281111561083257610832611e4e565b145b6108705760405162461bcd60e51b815260206004820152600d60248201526c496e76616c696420636c61737360981b60448201526064016105ba565b601a805490600061088083612012565b9091555050601a546000808084600281111561089e5761089e611e4e565b03610927576108ae601654610f91565b91506108bb601454610f91565b6000848152600b60209081526040808320869055600c825280832084905580518082018252600381526242746360e81b81840152878452600a9092529091209192506109079082612079565b506000838152600960205260409020610921601782612139565b50610a58565b600184600281111561093b5761093b611e4e565b036109be5761094b601554610d42565b9150610958601554610d42565b6000848152600b60209081526040808320869055600c825280832084905580518082018252600381526208ae8d60eb1b81840152878452600a9092529091209192506109a49082612079565b506000838152600960205260409020610921601882612139565b60028460028111156109d2576109d2611e4e565b03610a58576109e2601454610f4e565b91506109ef601654610f4e565b6000848152600b60209081526040808320869055600c82528083208490558051808201825260048152634c696e6b60e01b81840152878452600a909252909120919250610a3c9082612079565b506000838152600960205260409020610a56601982612139565b505b6040518060600160405280856002811115610a7557610a75611e4e565b815260ff808516602080840191909152908416604092830152600086815260089091522081518154829060ff19166001836002811115610ab757610ab7611e4e565b02179055506020820151815460409093015162ffff001990931661010060ff9283160262ff0000191617620100009190931602919091179055610afa858461139e565b5050505050565b60038114610b475760405162461bcd60e51b81526020600482015260136024820152724465636b2073697a65206d757374206265203360681b60448201526064016105ba565b33610b688383600081610b5c57610b5c61220c565b90506020020135610787565b6001600160a01b031614610b8e5760405162461bcd60e51b81526004016105ba90612222565b33610ba583836001818110610b5c57610b5c61220c565b6001600160a01b031614610bcb5760405162461bcd60e51b81526004016105ba90612222565b33610be283836002818110610b5c57610b5c61220c565b6001600160a01b031614610c085760405162461bcd60e51b81526004016105ba90612222565b336000908152600d6020526040902061065b908383611a6f565b60006001600160a01b038216610c8c5760405162461bcd60e51b815260206004820152602960248201527f4552433732313a2061646472657373207a65726f206973206e6f7420612076616044820152683634b21037bbb732b960b91b60648201526084016105ba565b506001600160a01b031660009081526003602052604090205490565b600a6020526000908152604090208054610cc190611f0b565b80601f0160208091040260200160405190810160405280929190818152602001828054610ced90611f0b565b8015610d3a5780601f10610d0f57610100808354040283529160200191610d3a565b820191906000526020600020905b815481529060010190602001808311610d1d57829003601f168201915b505050505081565b600080610d4d610ef8565b90506000610d5a82610e2f565b9050600081600081518110610d7157610d7161220c565b602002602001015160ff169050600082600181518110610d9357610d9361220c565b602002602001015160ff169050600083600281518110610db557610db561220c565b602002602001015160ff169050600084600381518110610dd757610dd761220c565b602002602001015160ff16905060008882848688610df59190612269565b610dff9190612269565b610e099190612269565b610e13919061227c565b9998505050505050505050565b60606001805461049c90611f0b565b60606000610e3c836113b8565b67ffffffffffffffff811115610e5457610e54611d5c565b604051908082528060200260200182016040528015610e7d578160200160208202803683370190505b5080519091505b8015610ee257610e95600a856122a9565b82610ea16001846122bd565b81518110610eb157610eb161220c565b60ff90921660209283029190910190910152610ece600a856122d0565b935080610eda816122e4565b915050610e84565b5092915050565b610ef43383836113e1565b5050565b600080600f60009054906101000a90046001600160a01b03166001600160a01b031663feaf968c6040518163ffffffff1660e01b815260040160a060405180830381865afa1580156106e7573d6000803e3d6000fd5b600080610d4d610691565b610f6333836111db565b610f7f5760405162461bcd60e51b81526004016105ba90611f45565b610f8b848484846114af565b50505050565b600080610d4d610716565b60606000611026610fac846114e2565b6000858152600960209081526040808320600a83528184206008909352922054610fdd90610100900460ff166114e2565b600088815260086020526040902054610ffe9062010000900460ff166114e2565b60405160200161101295949392919061238a565b60405160208183030381529060405261160e565b90508060405160200161103991906124ec565b604051602081830303815290604052915050919050565b60096020526000908152604090208054610cc190611f0b565b600d602052816000526040600020818154811061108557600080fd5b90600052602060002001600091509150505481565b6001600160a01b03918216600090815260056020908152604080832093909416825291909152205460ff1690565b6110d233846107e7565b6110dc33836107e7565b61065b33826107e7565b60006001600160e01b03198216632483248360e11b1480610487575061048782611760565b6000818152600260205260409020546001600160a01b031661116a5760405162461bcd60e51b8152602060048201526018602482015277115490cdcc8c4e881a5b9d985b1a59081d1bdad95b88125160421b60448201526064016105ba565b50565b600081815260046020526040902080546001600160a01b0319166001600160a01b03841690811790915581906111a282610787565b6001600160a01b03167f8c5be1e5ebec7d5bd14f71427d1e84f3dd0314c0f7b2291e5b200ac8c7c3b92560405160405180910390a45050565b6000806111e783610787565b9050806001600160a01b0316846001600160a01b0316148061120e575061120e818561109a565b806112325750836001600160a01b03166112278461051f565b6001600160a01b0316145b949350505050565b826001600160a01b031661124d82610787565b6001600160a01b0316146112735760405162461bcd60e51b81526004016105ba90612531565b6001600160a01b0382166112d55760405162461bcd60e51b8152602060048201526024808201527f4552433732313a207472616e7366657220746f20746865207a65726f206164646044820152637265737360e01b60648201526084016105ba565b826001600160a01b03166112e882610787565b6001600160a01b03161461130e5760405162461bcd60e51b81526004016105ba90612531565b600081815260046020908152604080832080546001600160a01b03199081169091556001600160a01b0387811680865260038552838620805460001901905590871680865283862080546001019055868652600290945282852080549092168417909155905184937fddf252ad1be2c89b69c2b068fc378daa952ba7f163c4a11628f55a4df523b3ef91a4505050565b610ef48282604051806020016040528060008152506117b0565b6000805b8215610487576113cd600a846122d0565b9250806113d981612012565b9150506113bc565b816001600160a01b0316836001600160a01b0316036114425760405162461bcd60e51b815260206004820152601960248201527f4552433732313a20617070726f766520746f2063616c6c65720000000000000060448201526064016105ba565b6001600160a01b03838116600081815260056020908152604080832094871680845294825291829020805460ff191686151590811790915591519182527f17307eab39ab6107e8899845ad3d59bd9653f200f220920489ca2b5937696c31910160405180910390a3505050565b6114ba84848461123a565b6114c6848484846117e3565b610f8b5760405162461bcd60e51b81526004016105ba90612576565b6060816000036115095750506040805180820190915260018152600360fc1b602082015290565b8160005b8115611533578061151d81612012565b915061152c9050600a836122d0565b915061150d565b60008167ffffffffffffffff81111561154e5761154e611d5c565b6040519080825280601f01601f191660200182016040528015611578576020820181803683370190505b509050815b85156116055761158e6001826122bd565b9050600061159d600a886122d0565b6115a890600a61227c565b6115b290886122bd565b6115bd9060306125c8565b905060008160f81b9050808484815181106115da576115da61220c565b60200101906001600160f81b031916908160001a9053506115fc600a896122d0565b9750505061157d565b50949350505050565b6060815160000361162d57505060408051602081019091526000815290565b600060405180606001604052806040815260200161263c604091399050600060038451600261165c9190612269565b61166691906122d0565b61167190600461227c565b67ffffffffffffffff81111561168957611689611d5c565b6040519080825280601f01601f1916602001820160405280156116b3576020820181803683370190505b509050600182016020820185865187015b8082101561171f576003820191508151603f8160121c168501518453600184019350603f81600c1c168501518453600184019350603f8160061c168501518453600184019350603f81168501518453506001830192506116c4565b505060038651066001811461173b576002811461174e5761070b565b603d6001830353603d600283035361070b565b603d6001830353509195945050505050565b60006001600160e01b031982166380ac58cd60e01b148061179157506001600160e01b03198216635b5e139f60e01b145b8061048757506301ffc9a760e01b6001600160e01b0319831614610487565b6117ba83836118e4565b6117c760008484846117e3565b61065b5760405162461bcd60e51b81526004016105ba90612576565b60006001600160a01b0384163b156118d957604051630a85bd0160e11b81526001600160a01b0385169063150b7a02906118279033908990889088906004016125e1565b6020604051808303816000875af1925050508015611862575060408051601f3d908101601f1916820190925261185f9181019061261e565b60015b6118bf573d808015611890576040519150601f19603f3d011682016040523d82523d6000602084013e611895565b606091505b5080516000036118b75760405162461bcd60e51b81526004016105ba90612576565b805181602001fd5b6001600160e01b031916630a85bd0160e11b149050611232565b506001949350505050565b6001600160a01b03821661193a5760405162461bcd60e51b815260206004820181905260248201527f4552433732313a206d696e7420746f20746865207a65726f206164647265737360448201526064016105ba565b6000818152600260205260409020546001600160a01b03161561199f5760405162461bcd60e51b815260206004820152601c60248201527f4552433732313a20746f6b656e20616c7265616479206d696e7465640000000060448201526064016105ba565b6000818152600260205260409020546001600160a01b031615611a045760405162461bcd60e51b815260206004820152601c60248201527f4552433732313a20746f6b656e20616c7265616479206d696e7465640000000060448201526064016105ba565b6001600160a01b038216600081815260036020908152604080832080546001019055848352600290915280822080546001600160a01b0319168417905551839291907fddf252ad1be2c89b69c2b068fc378daa952ba7f163c4a11628f55a4df523b3ef908290a45050565b828054828255906000526020600020908101928215611aaa579160200282015b82811115611aaa578235825591602001919060010190611a8f565b50611ab6929150611aba565b5090565b5b80821115611ab65760008155600101611abb565b6001600160e01b03198116811461116a57600080fd5b600060208284031215611af757600080fd5b8135611b0281611acf565b9392505050565b60005b83811015611b24578181015183820152602001611b0c565b50506000910152565b60008151808452611b45816020860160208601611b09565b601f01601f19169290920160200192915050565b602081526000611b026020830184611b2d565b600060208284031215611b7e57600080fd5b5035919050565b80356001600160a01b0381168114611b9c57600080fd5b919050565b60008060408385031215611bb457600080fd5b611bbd83611b85565b946020939093013593505050565b600080600060608486031215611be057600080fd5b611be984611b85565b9250611bf760208501611b85565b9150604084013590509250925092565b803560038110611b9c57600080fd5b60008060408385031215611c2957600080fd5b611c3283611b85565b9150611c4060208401611c07565b90509250929050565b60008060208385031215611c5c57600080fd5b823567ffffffffffffffff80821115611c7457600080fd5b818501915085601f830112611c8857600080fd5b813581811115611c9757600080fd5b8660208260051b8501011115611cac57600080fd5b60209290920196919550909350505050565b600060208284031215611cd057600080fd5b611b0282611b85565b6020808252825182820181905260009190848201906040850190845b81811015611d1457835160ff1683529284019291840191600101611cf5565b50909695505050505050565b60008060408385031215611d3357600080fd5b611d3c83611b85565b915060208301358015158114611d5157600080fd5b809150509250929050565b634e487b7160e01b600052604160045260246000fd5b60008060008060808587031215611d8857600080fd5b611d9185611b85565b9350611d9f60208601611b85565b925060408501359150606085013567ffffffffffffffff80821115611dc357600080fd5b818701915087601f830112611dd757600080fd5b813581811115611de957611de9611d5c565b604051601f8201601f19908116603f01168101908382118183101715611e1157611e11611d5c565b816040528281528a6020848701011115611e2a57600080fd5b82602086016020830137600060208483010152809550505050505092959194509250565b634e487b7160e01b600052602160045260246000fd5b6060810160038510611e8657634e487b7160e01b600052602160045260246000fd5b93815260ff9283166020820152911660409091015290565b60008060408385031215611eb157600080fd5b611eba83611b85565b9150611c4060208401611b85565b600080600060608486031215611edd57600080fd5b611ee684611c07565b9250611ef460208501611c07565b9150611f0260408501611c07565b90509250925092565b600181811c90821680611f1f57607f821691505b602082108103611f3f57634e487b7160e01b600052602260045260246000fd5b50919050565b6020808252602d908201527f4552433732313a2063616c6c6572206973206e6f7420746f6b656e206f776e6560408201526c1c881bdc88185c1c1c9bdd9959609a1b606082015260800190565b805169ffffffffffffffffffff81168114611b9c57600080fd5b600080600080600060a08688031215611fc457600080fd5b611fcd86611f92565b9450602086015193506040860151925060608601519150611ff060808701611f92565b90509295509295909350565b634e487b7160e01b600052601160045260246000fd5b60006001820161202457612024611ffc565b5060010190565b601f82111561065b57600081815260208120601f850160051c810160208610156120525750805b601f850160051c820191505b818110156120715782815560010161205e565b505050505050565b815167ffffffffffffffff81111561209357612093611d5c565b6120a7816120a18454611f0b565b8461202b565b602080601f8311600181146120dc57600084156120c45750858301515b600019600386901b1c1916600185901b178555612071565b600085815260208120601f198616915b8281101561210b578886015182559484019460019091019084016120ec565b50858210156121295787850151600019600388901b60f8161c191681555b5050505050600190811b01905550565b818103612144575050565b61214e8254611f0b565b67ffffffffffffffff81111561216657612166611d5c565b612174816120a18454611f0b565b6000601f8211600181146121a857600083156121905750848201545b600019600385901b1c1916600184901b178455610afa565b600085815260209020601f19841690600086815260209020845b838110156121e257828601548255600195860195909101906020016121c2565b50858310156121295793015460001960f8600387901b161c19169092555050600190811b01905550565b634e487b7160e01b600052603260045260246000fd5b60208082526027908201527f596f75206d757374206f776e20746865206361726420746f2061646420697420604082015266746f206465636b60c81b606082015260800190565b8082018082111561048757610487611ffc565b808202811582820484141761048757610487611ffc565b634e487b7160e01b600052601260045260246000fd5b6000826122b8576122b8612293565b500690565b8181038181111561048757610487611ffc565b6000826122df576122df612293565b500490565b6000816122f3576122f3611ffc565b506000190190565b6000815161230d818560208601611b09565b9290920192915050565b6000815461232481611f0b565b6001828116801561233c576001811461235157612380565b60ff1984168752821515830287019450612380565b8560005260208060002060005b858110156123775781548a82015290840190820161235e565b50505082870194505b5050505092915050565b693d913730b6b2911d101160b11b815285516000906123b081600a850160208b01611b09565b61088b60f21b600a918401918201819052691134b6b0b3b2911d101160b11b600c8301526123e16016830189612317565b9081527f2261747472696275746573223a205b7b2274726169745f74797065223a20224360028201526f03630b9b9911610113b30b63ab2911d160851b602282015290506124326032820187612317565b9050611f4b60f21b81527f7b2274726169745f74797065223a202241747461636b222c202276616c75652260028201526101d160f51b60228201526124e06124d26124896124cc612497612489602487018b6122fb565b611f4b60f21b815260020190565b7f7b2274726169745f74797065223a2022446566656e6365222c202276616c75658152620111d160ed1b602082015260230190565b876122fb565b615d7d60f01b815260020190565b98975050505050505050565b7f646174613a6170706c69636174696f6e2f6a736f6e3b6261736536342c00000081526000825161252481601d850160208701611b09565b91909101601d0192915050565b60208082526025908201527f4552433732313a207472616e736665722066726f6d20696e636f72726563742060408201526437bbb732b960d91b606082015260800190565b60208082526032908201527f4552433732313a207472616e7366657220746f206e6f6e20455243373231526560408201527131b2b4bb32b91034b6b83632b6b2b73a32b960711b606082015260800190565b60ff818116838216019081111561048757610487611ffc565b6001600160a01b038581168252841660208201526040810183905260806060820181905260009061261490830184611b2d565b9695505050505050565b60006020828403121561263057600080fd5b8151611b0281611acf56fe4142434445464748494a4b4c4d4e4f505152535455565758595a6162636465666768696a6b6c6d6e6f707172737475767778797a303132333435363738392b2fa2646970667358221220749760427208e2cd86b0755fc88497142d1f38500ccba0ea1367f4efd2f6a4cf64736f6c6343000813003368747470733a2f2f667563687369612d64656665617465642d65726d696e652d3230382e6d7970696e6174612e636c6f75642f697066732f516d647a746a7379764b634c7a6a706341664e327957456772476334367641794b5455475a3661594643537475332f322e706e6768747470733a2f2f667563687369612d64656665617465642d65726d696e652d3230382e6d7970696e6174612e636c6f75642f697066732f516d647a746a7379764b634c7a6a706341664e327957456772476334367641794b5455475a3661594643537475332f332e706e6768747470733a2f2f667563687369612d64656665617465642d65726d696e652d3230382e6d7970696e6174612e636c6f75642f697066732f516d647a746a7379764b634c7a6a706341664e327957456772476334367641794b5455475a3661594643537475332f312e706e67",
  "devdoc": {
    "events": {
      "Approval(address,address,uint256)": {
        "details": "Emitted when `owner` enables `approved` to manage the `tokenId` token."
      },
      "ApprovalForAll(address,address,bool)": {
        "details": "Emitted when `owner` enables or disables (`approved`) `operator` to manage all of its assets."
      },
      "BatchMetadataUpdate(uint256,uint256)": {
        "details": "This event emits when the metadata of a range of tokens is changed. So that the third-party platforms such as NFT market could timely update the images and related attributes of the NFTs."
      },
      "MetadataUpdate(uint256)": {
        "details": "This event emits when the metadata of a token is changed. So that the third-party platforms such as NFT market could timely update the images and related attributes of the NFT."
      },
      "Transfer(address,address,uint256)": {
        "details": "Emitted when `tokenId` token is transferred from `from` to `to`."
      }
    },
    "kind": "dev",
    "methods": {
      "approve(address,uint256)": {
        "details": "See {IERC721-approve}."
      },
      "balanceOf(address)": {
        "details": "See {IERC721-balanceOf}."
      },
      "getApproved(uint256)": {
        "details": "See {IERC721-getApproved}."
      },
      "isApprovedForAll(address,address)": {
        "details": "See {IERC721-isApprovedForAll}."
      },
      "name()": {
        "details": "See {IERC721Metadata-name}."
      },
      "ownerOf(uint256)": {
        "details": "See {IERC721-ownerOf}."
      },
      "safeTransferFrom(address,address,uint256)": {
        "details": "See {IERC721-safeTransferFrom}."
      },
      "safeTransferFrom(address,address,uint256,bytes)": {
        "details": "See {IERC721-safeTransferFrom}."
      },
      "setApprovalForAll(address,bool)": {
        "details": "See {IERC721-setApprovalForAll}."
      },
      "symbol()": {
        "details": "See {IERC721Metadata-symbol}."
      },
      "transferFrom(address,address,uint256)": {
        "details": "See {IERC721-transferFrom}."
      }
    },
    "version": 1
  },
  "userdoc": {
    "kind": "user",
    "methods": {},
    "version": 1
  },
  "storageLayout": {
    "storage": [
      {
        "astId": 99,
        "contract": "contracts/MarketClash.sol:MarketClash",
        "label": "_name",
        "offset": 0,
        "slot": "0",
        "type": "t_string_storage"
      },
      {
        "astId": 101,
        "contract": "contracts/MarketClash.sol:MarketClash",
        "label": "_symbol",
        "offset": 0,
        "slot": "1",
        "type": "t_string_storage"
      },
      {
        "astId": 105,
        "contract": "contracts/MarketClash.sol:MarketClash",
        "label": "_owners",
        "offset": 0,
        "slot": "2",
        "type": "t_mapping(t_uint256,t_address)"
      },
      {
        "astId": 109,
        "contract": "contracts/MarketClash.sol:MarketClash",
        "label": "_balances",
        "offset": 0,
        "slot": "3",
        "type": "t_mapping(t_address,t_uint256)"
      },
      {
        "astId": 113,
        "contract": "contracts/MarketClash.sol:MarketClash",
        "label": "_tokenApprovals",
        "offset": 0,
        "slot": "4",
        "type": "t_mapping(t_uint256,t_address)"
      },
      {
        "astId": 119,
        "contract": "contracts/MarketClash.sol:MarketClash",
        "label": "_operatorApprovals",
        "offset": 0,
        "slot": "5",
        "type": "t_mapping(t_address,t_mapping(t_address,t_bool))"
      },
      {
        "astId": 1150,
        "contract": "contracts/MarketClash.sol:MarketClash",
        "label": "_tokenURIs",
        "offset": 0,
        "slot": "6",
        "type": "t_mapping(t_uint256,t_string_storage)"
      },
      {
        "astId": 3058,
        "contract": "contracts/MarketClash.sol:MarketClash",
        "label": "tokenIdCounter",
        "offset": 0,
        "slot": "7",
        "type": "t_struct(Counter)1722_storage"
      },
      {
        "astId": 3063,
        "contract": "contracts/MarketClash.sol:MarketClash",
        "label": "attributes",
        "offset": 0,
        "slot": "8",
        "type": "t_mapping(t_uint256,t_struct(Attr)3048_storage)"
      },
      {
        "astId": 3067,
        "contract": "contracts/MarketClash.sol:MarketClash",
        "label": "imageMapping",
        "offset": 0,
        "slot": "9",
        "type": "t_mapping(t_uint256,t_string_storage)"
      },
      {
        "astId": 3071,
        "contract": "contracts/MarketClash.sol:MarketClash",
        "label": "classMapping",
        "offset": 0,
        "slot": "10",
        "type": "t_mapping(t_uint256,t_string_storage)"
      },
      {
        "astId": 3075,
        "contract": "contracts/MarketClash.sol:MarketClash",
        "label": "tokenIdAttack",
        "offset": 0,
        "slot": "11",
        "type": "t_mapping(t_uint256,t_uint256)"
      },
      {
        "astId": 3079,
        "contract": "contracts/MarketClash.sol:MarketClash",
        "label": "tokenIdDefense",
        "offset": 0,
        "slot": "12",
        "type": "t_mapping(t_uint256,t_uint256)"
      },
      {
        "astId": 3084,
        "contract": "contracts/MarketClash.sol:MarketClash",
        "label": "deckOfPlayer",
        "offset": 0,
        "slot": "13",
        "type": "t_mapping(t_address,t_array(t_uint256)dyn_storage)"
      },
      {
        "astId": 3087,
        "contract": "contracts/MarketClash.sol:MarketClash",
        "label": "priceFeedBtc",
        "offset": 0,
        "slot": "14",
        "type": "t_contract(AggregatorV3Interface)45"
      },
      {
        "astId": 3090,
        "contract": "contracts/MarketClash.sol:MarketClash",
        "label": "priceFeedETH",
        "offset": 0,
        "slot": "15",
        "type": "t_contract(AggregatorV3Interface)45"
      },
      {
        "astId": 3093,
        "contract": "contracts/MarketClash.sol:MarketClash",
        "label": "priceFeedLink",
        "offset": 0,
        "slot": "16",
        "type": "t_contract(AggregatorV3Interface)45"
      },
      {
        "astId": 3097,
        "contract": "contracts/MarketClash.sol:MarketClash",
        "label": "btcuscAddress",
        "offset": 0,
        "slot": "17",
        "type": "t_address"
      },
      {
        "astId": 3100,
        "contract": "contracts/MarketClash.sol:MarketClash",
        "label": "ethusdAddress",
        "offset": 0,
        "slot": "18",
        "type": "t_address"
      },
      {
        "astId": 3103,
        "contract": "contracts/MarketClash.sol:MarketClash",
        "label": "linkusdAddress",
        "offset": 0,
        "slot": "19",
        "type": "t_address"
      },
      {
        "astId": 3106,
        "contract": "contracts/MarketClash.sol:MarketClash",
        "label": "highMultiplier",
        "offset": 0,
        "slot": "20",
        "type": "t_uint256"
      },
      {
        "astId": 3109,
        "contract": "contracts/MarketClash.sol:MarketClash",
        "label": "mediumMultiplier",
        "offset": 0,
        "slot": "21",
        "type": "t_uint256"
      },
      {
        "astId": 3112,
        "contract": "contracts/MarketClash.sol:MarketClash",
        "label": "lowMultiplier",
        "offset": 0,
        "slot": "22",
        "type": "t_uint256"
      },
      {
        "astId": 3115,
        "contract": "contracts/MarketClash.sol:MarketClash",
        "label": "btcImage",
        "offset": 0,
        "slot": "23",
        "type": "t_string_storage"
      },
      {
        "astId": 3118,
        "contract": "contracts/MarketClash.sol:MarketClash",
        "label": "ethImage",
        "offset": 0,
        "slot": "24",
        "type": "t_string_storage"
      },
      {
        "astId": 3121,
        "contract": "contracts/MarketClash.sol:MarketClash",
        "label": "linkImage",
        "offset": 0,
        "slot": "25",
        "type": "t_string_storage"
      },
      {
        "astId": 3124,
        "contract": "contracts/MarketClash.sol:MarketClash",
        "label": "currentTokenId",
        "offset": 0,
        "slot": "26",
        "type": "t_uint256"
      }
    ],
    "types": {
      "t_address": {
        "encoding": "inplace",
        "label": "address",
        "numberOfBytes": "20"
      },
      "t_array(t_uint256)dyn_storage": {
        "base": "t_uint256",
        "encoding": "dynamic_array",
        "label": "uint256[]",
        "numberOfBytes": "32"
      },
      "t_bool": {
        "encoding": "inplace",
        "label": "bool",
        "numberOfBytes": "1"
      },
      "t_contract(AggregatorV3Interface)45": {
        "encoding": "inplace",
        "label": "contract AggregatorV3Interface",
        "numberOfBytes": "20"
      },
      "t_enum(Class)3040": {
        "encoding": "inplace",
        "label": "enum MarketClash.Class",
        "numberOfBytes": "1"
      },
      "t_mapping(t_address,t_array(t_uint256)dyn_storage)": {
        "encoding": "mapping",
        "key": "t_address",
        "label": "mapping(address => uint256[])",
        "numberOfBytes": "32",
        "value": "t_array(t_uint256)dyn_storage"
      },
      "t_mapping(t_address,t_bool)": {
        "encoding": "mapping",
        "key": "t_address",
        "label": "mapping(address => bool)",
        "numberOfBytes": "32",
        "value": "t_bool"
      },
      "t_mapping(t_address,t_mapping(t_address,t_bool))": {
        "encoding": "mapping",
        "key": "t_address",
        "label": "mapping(address => mapping(address => bool))",
        "numberOfBytes": "32",
        "value": "t_mapping(t_address,t_bool)"
      },
      "t_mapping(t_address,t_uint256)": {
        "encoding": "mapping",
        "key": "t_address",
        "label": "mapping(address => uint256)",
        "numberOfBytes": "32",
        "value": "t_uint256"
      },
      "t_mapping(t_uint256,t_address)": {
        "encoding": "mapping",
        "key": "t_uint256",
        "label": "mapping(uint256 => address)",
        "numberOfBytes": "32",
        "value": "t_address"
      },
      "t_mapping(t_uint256,t_string_storage)": {
        "encoding": "mapping",
        "key": "t_uint256",
        "label": "mapping(uint256 => string)",
        "numberOfBytes": "32",
        "value": "t_string_storage"
      },
      "t_mapping(t_uint256,t_struct(Attr)3048_storage)": {
        "encoding": "mapping",
        "key": "t_uint256",
        "label": "mapping(uint256 => struct MarketClash.Attr)",
        "numberOfBytes": "32",
        "value": "t_struct(Attr)3048_storage"
      },
      "t_mapping(t_uint256,t_uint256)": {
        "encoding": "mapping",
        "key": "t_uint256",
        "label": "mapping(uint256 => uint256)",
        "numberOfBytes": "32",
        "value": "t_uint256"
      },
      "t_string_storage": {
        "encoding": "bytes",
        "label": "string",
        "numberOfBytes": "32"
      },
      "t_struct(Attr)3048_storage": {
        "encoding": "inplace",
        "label": "struct MarketClash.Attr",
        "members": [
          {
            "astId": 3043,
            "contract": "contracts/MarketClash.sol:MarketClash",
            "label": "Class",
            "offset": 0,
            "slot": "0",
            "type": "t_enum(Class)3040"
          },
          {
            "astId": 3045,
            "contract": "contracts/MarketClash.sol:MarketClash",
            "label": "attack",
            "offset": 1,
            "slot": "0",
            "type": "t_uint8"
          },
          {
            "astId": 3047,
            "contract": "contracts/MarketClash.sol:MarketClash",
            "label": "defence",
            "offset": 2,
            "slot": "0",
            "type": "t_uint8"
          }
        ],
        "numberOfBytes": "32"
      },
      "t_struct(Counter)1722_storage": {
        "encoding": "inplace",
        "label": "struct Counters.Counter",
        "members": [
          {
            "astId": 1721,
            "contract": "contracts/MarketClash.sol:MarketClash",
            "label": "_value",
            "offset": 0,
            "slot": "0",
            "type": "t_uint256"
          }
        ],
        "numberOfBytes": "32"
      },
      "t_uint256": {
        "encoding": "inplace",
        "label": "uint256",
        "numberOfBytes": "32"
      },
      "t_uint8": {
        "encoding": "inplace",
        "label": "uint8",
        "numberOfBytes": "1"
      }
    }
  }
}