{
  "address": "0xFCBDf86140F0c16Fc3956e59f4c1E1eD873fdAB9",
  "abi": [
    {
      "inputs": [],
      "stateMutability": "nonpayable",
      "type": "constructor"
    },
    {
      "anonymous": false,
      "inputs": [
        {
          "indexed": true,
          "internalType": "address",
          "name": "owner",
          "type": "address"
        },
        {
          "indexed": true,
          "internalType": "address",
          "name": "approved",
          "type": "address"
        },
        {
          "indexed": true,
          "internalType": "uint256",
          "name": "tokenId",
          "type": "uint256"
        }
      ],
      "name": "Approval",
      "type": "event"
    },
    {
      "anonymous": false,
      "inputs": [
        {
          "indexed": true,
          "internalType": "address",
          "name": "owner",
          "type": "address"
        },
        {
          "indexed": true,
          "internalType": "address",
          "name": "operator",
          "type": "address"
        },
        {
          "indexed": false,
          "internalType": "bool",
          "name": "approved",
          "type": "bool"
        }
      ],
      "name": "ApprovalForAll",
      "type": "event"
    },
    {
      "anonymous": false,
      "inputs": [
        {
          "indexed": false,
          "internalType": "uint256",
          "name": "_fromTokenId",
          "type": "uint256"
        },
        {
          "indexed": false,
          "internalType": "uint256",
          "name": "_toTokenId",
          "type": "uint256"
        }
      ],
      "name": "BatchMetadataUpdate",
      "type": "event"
    },
    {
      "anonymous": false,
      "inputs": [
        {
          "indexed": false,
          "internalType": "uint256",
          "name": "_tokenId",
          "type": "uint256"
        }
      ],
      "name": "MetadataUpdate",
      "type": "event"
    },
    {
      "anonymous": false,
      "inputs": [
        {
          "indexed": true,
          "internalType": "address",
          "name": "from",
          "type": "address"
        },
        {
          "indexed": true,
          "internalType": "address",
          "name": "to",
          "type": "address"
        },
        {
          "indexed": true,
          "internalType": "uint256",
          "name": "tokenId",
          "type": "uint256"
        }
      ],
      "name": "Transfer",
      "type": "event"
    },
    {
      "anonymous": false,
      "inputs": [
        {
          "indexed": true,
          "internalType": "uint256",
          "name": "cardOne",
          "type": "uint256"
        },
        {
          "indexed": true,
          "internalType": "uint256",
          "name": "cardTwo",
          "type": "uint256"
        },
        {
          "indexed": true,
          "internalType": "uint256",
          "name": "cardThree",
          "type": "uint256"
        }
      ],
      "name": "openedPackByPlayer",
      "type": "event"
    },
    {
      "inputs": [
        {
          "internalType": "address",
          "name": "to",
          "type": "address"
        },
        {
          "internalType": "uint256",
          "name": "tokenId",
          "type": "uint256"
        }
      ],
      "name": "approve",
      "outputs": [],
      "stateMutability": "nonpayable",
      "type": "function"
    },
    {
      "inputs": [
        {
          "internalType": "uint256",
          "name": "",
          "type": "uint256"
        }
      ],
      "name": "attributes",
      "outputs": [
        {
          "internalType": "enum MarketClash.Class",
          "name": "Class",
          "type": "uint8"
        },
        {
          "internalType": "uint8",
          "name": "attack",
          "type": "uint8"
        },
        {
          "internalType": "uint8",
          "name": "defence",
          "type": "uint8"
        }
      ],
      "stateMutability": "view",
      "type": "function"
    },
    {
      "inputs": [
        {
          "internalType": "address",
          "name": "owner",
          "type": "address"
        }
      ],
      "name": "balanceOf",
      "outputs": [
        {
          "internalType": "uint256",
          "name": "",
          "type": "uint256"
        }
      ],
      "stateMutability": "view",
      "type": "function"
    },
    {
      "inputs": [
        {
          "internalType": "uint256",
          "name": "",
          "type": "uint256"
        }
      ],
      "name": "classMapping",
      "outputs": [
        {
          "internalType": "string",
          "name": "",
          "type": "string"
        }
      ],
      "stateMutability": "view",
      "type": "function"
    },
    {
      "inputs": [
        {
          "internalType": "uint256[]",
          "name": "_arrayOfCards",
          "type": "uint256[]"
        }
      ],
      "name": "createDeck",
      "outputs": [],
      "stateMutability": "nonpayable",
      "type": "function"
    },
    {
      "inputs": [
        {
          "internalType": "address",
          "name": "",
          "type": "address"
        },
        {
          "internalType": "uint256",
          "name": "",
          "type": "uint256"
        }
      ],
      "name": "deckOfPlayer",
      "outputs": [
        {
          "internalType": "uint256",
          "name": "",
          "type": "uint256"
        }
      ],
      "stateMutability": "view",
      "type": "function"
    },
    {
      "inputs": [
        {
          "internalType": "uint256",
          "name": "tokenId",
          "type": "uint256"
        }
      ],
      "name": "getApproved",
      "outputs": [
        {
          "internalType": "address",
          "name": "",
          "type": "address"
        }
      ],
      "stateMutability": "view",
      "type": "function"
    },
    {
      "inputs": [],
      "name": "getBtcPrice",
      "outputs": [
        {
          "internalType": "uint256",
          "name": "",
          "type": "uint256"
        }
      ],
      "stateMutability": "view",
      "type": "function"
    },
    {
      "inputs": [],
      "name": "getETHPrice",
      "outputs": [
        {
          "internalType": "uint256",
          "name": "",
          "type": "uint256"
        }
      ],
      "stateMutability": "view",
      "type": "function"
    },
    {
      "inputs": [],
      "name": "getLinkPrice",
      "outputs": [
        {
          "internalType": "uint256",
          "name": "",
          "type": "uint256"
        }
      ],
      "stateMutability": "view",
      "type": "function"
    },
    {
      "inputs": [
        {
          "internalType": "address",
          "name": "_address",
          "type": "address"
        }
      ],
      "name": "getRecentPackOpenedByUser",
      "outputs": [
        {
          "internalType": "uint256[]",
          "name": "",
          "type": "uint256[]"
        }
      ],
      "stateMutability": "view",
      "type": "function"
    },
    {
      "inputs": [
        {
          "internalType": "uint256",
          "name": "multiplier",
          "type": "uint256"
        }
      ],
      "name": "getStatBtc",
      "outputs": [
        {
          "internalType": "uint256",
          "name": "",
          "type": "uint256"
        }
      ],
      "stateMutability": "view",
      "type": "function"
    },
    {
      "inputs": [
        {
          "internalType": "uint256",
          "name": "multiplier",
          "type": "uint256"
        }
      ],
      "name": "getStatETH",
      "outputs": [
        {
          "internalType": "uint256",
          "name": "",
          "type": "uint256"
        }
      ],
      "stateMutability": "view",
      "type": "function"
    },
    {
      "inputs": [
        {
          "internalType": "uint256",
          "name": "multiplier",
          "type": "uint256"
        }
      ],
      "name": "getStatLink",
      "outputs": [
        {
          "internalType": "uint256",
          "name": "",
          "type": "uint256"
        }
      ],
      "stateMutability": "view",
      "type": "function"
    },
    {
      "inputs": [
        {
          "internalType": "uint256",
          "name": "",
          "type": "uint256"
        }
      ],
      "name": "imageMapping",
      "outputs": [
        {
          "internalType": "string",
          "name": "",
          "type": "string"
        }
      ],
      "stateMutability": "view",
      "type": "function"
    },
    {
      "inputs": [
        {
          "internalType": "address",
          "name": "owner",
          "type": "address"
        },
        {
          "internalType": "address",
          "name": "operator",
          "type": "address"
        }
      ],
      "name": "isApprovedForAll",
      "outputs": [
        {
          "internalType": "bool",
          "name": "",
          "type": "bool"
        }
      ],
      "stateMutability": "view",
      "type": "function"
    },
    {
      "inputs": [
        {
          "internalType": "address",
          "name": "to",
          "type": "address"
        },
        {
          "internalType": "enum MarketClash.Class",
          "name": "_class",
          "type": "uint8"
        }
      ],
      "name": "mint",
      "outputs": [
        {
          "internalType": "uint256",
          "name": "_tokenIdMinted",
          "type": "uint256"
        }
      ],
      "stateMutability": "nonpayable",
      "type": "function"
    },
    {
      "inputs": [],
      "name": "name",
      "outputs": [
        {
          "internalType": "string",
          "name": "",
          "type": "string"
        }
      ],
      "stateMutability": "view",
      "type": "function"
    },
    {
      "inputs": [
        {
          "internalType": "enum MarketClash.Class",
          "name": "_firstCardClass",
          "type": "uint8"
        },
        {
          "internalType": "enum MarketClash.Class",
          "name": "_secondCardClass",
          "type": "uint8"
        },
        {
          "internalType": "enum MarketClash.Class",
          "name": "_thirdCardClass",
          "type": "uint8"
        }
      ],
      "name": "openPack",
      "outputs": [],
      "stateMutability": "nonpayable",
      "type": "function"
    },
    {
      "inputs": [
        {
          "internalType": "uint256",
          "name": "tokenId",
          "type": "uint256"
        }
      ],
      "name": "ownerOf",
      "outputs": [
        {
          "internalType": "address",
          "name": "",
          "type": "address"
        }
      ],
      "stateMutability": "view",
      "type": "function"
    },
    {
      "inputs": [
        {
          "internalType": "address",
          "name": "",
          "type": "address"
        },
        {
          "internalType": "uint256",
          "name": "",
          "type": "uint256"
        }
      ],
      "name": "recentOpenedPackByPlayer",
      "outputs": [
        {
          "internalType": "uint256",
          "name": "",
          "type": "uint256"
        }
      ],
      "stateMutability": "view",
      "type": "function"
    },
    {
      "inputs": [
        {
          "internalType": "address",
          "name": "from",
          "type": "address"
        },
        {
          "internalType": "address",
          "name": "to",
          "type": "address"
        },
        {
          "internalType": "uint256",
          "name": "tokenId",
          "type": "uint256"
        }
      ],
      "name": "safeTransferFrom",
      "outputs": [],
      "stateMutability": "nonpayable",
      "type": "function"
    },
    {
      "inputs": [
        {
          "internalType": "address",
          "name": "from",
          "type": "address"
        },
        {
          "internalType": "address",
          "name": "to",
          "type": "address"
        },
        {
          "internalType": "uint256",
          "name": "tokenId",
          "type": "uint256"
        },
        {
          "internalType": "bytes",
          "name": "data",
          "type": "bytes"
        }
      ],
      "name": "safeTransferFrom",
      "outputs": [],
      "stateMutability": "nonpayable",
      "type": "function"
    },
    {
      "inputs": [
        {
          "internalType": "address",
          "name": "operator",
          "type": "address"
        },
        {
          "internalType": "bool",
          "name": "approved",
          "type": "bool"
        }
      ],
      "name": "setApprovalForAll",
      "outputs": [],
      "stateMutability": "nonpayable",
      "type": "function"
    },
    {
      "inputs": [
        {
          "internalType": "bytes4",
          "name": "interfaceId",
          "type": "bytes4"
        }
      ],
      "name": "supportsInterface",
      "outputs": [
        {
          "internalType": "bool",
          "name": "",
          "type": "bool"
        }
      ],
      "stateMutability": "view",
      "type": "function"
    },
    {
      "inputs": [],
      "name": "symbol",
      "outputs": [
        {
          "internalType": "string",
          "name": "",
          "type": "string"
        }
      ],
      "stateMutability": "view",
      "type": "function"
    },
    {
      "inputs": [
        {
          "internalType": "uint256",
          "name": "",
          "type": "uint256"
        }
      ],
      "name": "tokenIdAttack",
      "outputs": [
        {
          "internalType": "uint256",
          "name": "",
          "type": "uint256"
        }
      ],
      "stateMutability": "view",
      "type": "function"
    },
    {
      "inputs": [],
      "name": "tokenIdCounter",
      "outputs": [
        {
          "internalType": "uint256",
          "name": "_value",
          "type": "uint256"
        }
      ],
      "stateMutability": "view",
      "type": "function"
    },
    {
      "inputs": [
        {
          "internalType": "uint256",
          "name": "",
          "type": "uint256"
        }
      ],
      "name": "tokenIdDefense",
      "outputs": [
        {
          "internalType": "uint256",
          "name": "",
          "type": "uint256"
        }
      ],
      "stateMutability": "view",
      "type": "function"
    },
    {
      "inputs": [
        {
          "internalType": "uint256",
          "name": "tokenId",
          "type": "uint256"
        }
      ],
      "name": "tokenURI",
      "outputs": [
        {
          "internalType": "string",
          "name": "",
          "type": "string"
        }
      ],
      "stateMutability": "view",
      "type": "function"
    },
    {
      "inputs": [
        {
          "internalType": "address",
          "name": "from",
          "type": "address"
        },
        {
          "internalType": "address",
          "name": "to",
          "type": "address"
        },
        {
          "internalType": "uint256",
          "name": "tokenId",
          "type": "uint256"
        }
      ],
      "name": "transferFrom",
      "outputs": [],
      "stateMutability": "nonpayable",
      "type": "function"
    },
    {
      "inputs": [
        {
          "internalType": "uint256",
          "name": "number",
          "type": "uint256"
        }
      ],
      "name": "uintToArray",
      "outputs": [
        {
          "internalType": "uint8[]",
          "name": "",
          "type": "uint8[]"
        }
      ],
      "stateMutability": "pure",
      "type": "function"
    }
  ],
  "transactionHash": "0x9235d3595154e0ca073866b66e2abe368880ef05bc924aba3440e5e26c1a1b2c",
  "args": [],
  "numDeployments": 15,
  "solcInputHash": "bfb793968f3187ad6f0de0fe77870c79",
  "bytecode": "0x601280546001600160a01b03199081167387dce67002e66c17bc0d723fe20d736b80caafda179091556013805482167359f1ec1f10bd7ed9b938431086bc1d9e233ecf411790556014805490911673ac3e04999aefe44d508cb3f9b972b0ecd07c1efb179055600360155560026016556001601755610120604052606c60808181529062002d0b60a03960189062000098908262000252565b506040518060a00160405280606c815260200162002c33606c9139601990620000c2908262000252565b506040518060a00160405280606c815260200162002c9f606c9139601a90620000ec908262000252565b506000601b55348015620000ff57600080fd5b506040518060400160405280600b81526020016a09ac2e4d6cae886d8c2e6d60ab1b815250604051806040016040528060028152602001614d4b60f01b815250816000908162000150919062000252565b5060016200015f828262000252565b5050601254600f80546001600160a01b039283166001600160a01b0319918216179091556013546010805491841691831691909117905560145460118054919093169116179055506200031e565b634e487b7160e01b600052604160045260246000fd5b600181811c90821680620001d857607f821691505b602082108103620001f957634e487b7160e01b600052602260045260246000fd5b50919050565b601f8211156200024d57600081815260208120601f850160051c81016020861015620002285750805b601f850160051c820191505b81811015620002495782815560010162000234565b5050505b505050565b81516001600160401b038111156200026e576200026e620001ad565b62000286816200027f8454620001c3565b84620001ff565b602080601f831160018114620002be5760008415620002a55750858301515b600019600386901b1c1916600185901b17855562000249565b600085815260208120601f198616915b82811015620002ef57888601518255948401946001909101908401620002ce565b50858210156200030e5787850151600019600388901b60f8161c191681555b5050505050600190811b01905550565b612905806200032e6000396000f3fe608060405234801561001057600080fd5b50600436106101f05760003560e01c8063919f06491161010f578063bb92947b116100a2578063e7f3be5211610071578063e7f3be521461046c578063e985e9c51461047f578063f17f39b3146104bb578063ffe52aeb146104ce57600080fd5b8063bb92947b146103ee578063c87b56dd14610401578063d05dcc6a14610414578063d77691ee1461045957600080fd5b8063a22cb465116100de578063a22cb465146103ad578063a607a8d9146103c0578063b16045bc146103c8578063b88d4fde146103db57600080fd5b8063919f06491461035b57806395d89b411461037b57806398bdf6f5146103835780639ba82a331461038d57600080fd5b806342842e0e116101875780636c9e4e25116101565780636c9e4e251461030f57806370a08231146103225780637afc86621461033557806383acda611461034857600080fd5b806342842e0e146102c35780636352211e146102d6578063691562a0146102e957806369e12c1f146102fc57600080fd5b80631ac3a0fb116101c35780631ac3a0fb1461027257806323b872dd146102a05780632dddd49c146102b35780633a3610bc146102bb57600080fd5b806301ffc9a7146101f557806306fdde031461021d578063081812fc14610232578063095ea7b31461025d575b600080fd5b610208610203366004611cf9565b6104ee565b60405190151581526020015b60405180910390f35b6102256104ff565b6040516102149190611d6d565b610245610240366004611d80565b610591565b6040516001600160a01b039091168152602001610214565b61027061026b366004611db5565b6105b8565b005b610292610280366004611d80565b600b6020526000908152604090205481565b604051908152602001610214565b6102706102ae366004611ddf565b6106d2565b610292610703565b610292610788565b6102706102d1366004611ddf565b6107de565b6102456102e4366004611d80565b6107f9565b6102926102f7366004611e2a565b610859565b61029261030a366004611db5565b610b77565b61027061031d366004611e5d565b610ba8565b610292610330366004611ed2565b610cc9565b610225610343366004611d80565b610d4f565b610292610356366004611d80565b610de9565b610292610369366004611d80565b600c6020526000908152604090205481565b610225610ec7565b6007546102929081565b6103a061039b366004611d80565b610ed6565b6040516102149190611eed565b6102706103bb366004611f34565b610f90565b610292610f9f565b6102926103d6366004611d80565b610ff5565b6102706103e9366004611f86565b611000565b6102926103fc366004611d80565b611038565b61022561040f366004611d80565b611043565b61044a610422366004611d80565b60086020526000908152604090205460ff808216916101008104821691620100009091041683565b60405161021493929190612078565b610225610467366004611d80565b6110f7565b61029261047a366004611db5565b611110565b61020861048d3660046120b2565b6001600160a01b03918216600090815260056020908152604080832093909416825291909152205460ff1690565b6102706104c93660046120dc565b61112c565b6104e16104dc366004611ed2565b611233565b604051610214919061211f565b60006104f98261129f565b92915050565b60606000805461050e90612157565b80601f016020809104026020016040519081016040528092919081815260200182805461053a90612157565b80156105875780601f1061055c57610100808354040283529160200191610587565b820191906000526020600020905b81548152906001019060200180831161056a57829003601f168201915b5050505050905090565b600061059c826112c4565b506000908152600460205260409020546001600160a01b031690565b60006105c3826107f9565b9050806001600160a01b0316836001600160a01b0316036106355760405162461bcd60e51b815260206004820152602160248201527f4552433732313a20617070726f76616c20746f2063757272656e74206f776e656044820152603960f91b60648201526084015b60405180910390fd5b336001600160a01b03821614806106515750610651813361048d565b6106c35760405162461bcd60e51b815260206004820152603d60248201527f4552433732313a20617070726f76652063616c6c6572206973206e6f7420746f60448201527f6b656e206f776e6572206f7220617070726f76656420666f7220616c6c000000606482015260840161062c565b6106cd8383611326565b505050565b6106dc3382611394565b6106f85760405162461bcd60e51b815260040161062c90612191565b6106cd838383611413565b600080601160009054906101000a90046001600160a01b03166001600160a01b031663feaf968c6040518163ffffffff1660e01b815260040160a060405180830381865afa158015610759573d6000803e3d6000fd5b505050506040513d601f19601f8201168201806040525081019061077d91906121f8565b509195945050505050565b600080600f60009054906101000a90046001600160a01b03166001600160a01b031663feaf968c6040518163ffffffff1660e01b815260040160a060405180830381865afa158015610759573d6000803e3d6000fd5b6106cd83838360405180602001604052806000815250611000565b6000818152600260205260408120546001600160a01b0316806104f95760405162461bcd60e51b8152602060048201526018602482015277115490cdcc8c4e881a5b9d985b1a59081d1bdad95b88125160421b604482015260640161062c565b60008082600281111561086e5761086e612062565b148061088b5750600182600281111561088957610889612062565b145b806108a7575060028260028111156108a5576108a5612062565b145b6108e35760405162461bcd60e51b815260206004820152600d60248201526c496e76616c696420636c61737360981b604482015260640161062c565b601b80549060006108f38361225e565b9091555050601b546000808085600281111561091157610911612062565b0361099a57610921601754611038565b915061092e601554611038565b6000848152600b60209081526040808320869055600c825280832084905580518082018252600381526242746360e81b81840152878452600a90925290912091925061097a90826122c5565b506000838152600960205260409020610994601882612385565b50610acb565b60018560028111156109ae576109ae612062565b03610a31576109be601654610de9565b91506109cb601654610de9565b6000848152600b60209081526040808320869055600c825280832084905580518082018252600381526208ae8d60eb1b81840152878452600a909252909120919250610a1790826122c5565b506000838152600960205260409020610994601982612385565b6002856002811115610a4557610a45612062565b03610acb57610a55601554610ff5565b9150610a62601754610ff5565b6000848152600b60209081526040808320869055600c82528083208490558051808201825260048152634c696e6b60e01b81840152878452600a909252909120919250610aaf90826122c5565b506000838152600960205260409020610ac9601a82612385565b505b6040518060600160405280866002811115610ae857610ae8612062565b815260ff808516602080840191909152908416604092830152600086815260089091522081518154829060ff19166001836002811115610b2a57610b2a612062565b02179055506020820151815460409093015162ffff001990931661010060ff9283160262ff0000191617620100009190931602919091179055610b6d8684611577565b5090949350505050565b600d6020528160005260406000208181548110610b9357600080fd5b90600052602060002001600091509150505481565b60038114610bee5760405162461bcd60e51b81526020600482015260136024820152724465636b2073697a65206d757374206265203360681b604482015260640161062c565b33610c0f8383600081610c0357610c03612460565b905060200201356107f9565b6001600160a01b031614610c355760405162461bcd60e51b815260040161062c90612476565b33610c4c83836001818110610c0357610c03612460565b6001600160a01b031614610c725760405162461bcd60e51b815260040161062c90612476565b33610c8983836002818110610c0357610c03612460565b6001600160a01b031614610caf5760405162461bcd60e51b815260040161062c90612476565b336000908152600e602052604090206106cd908383611c48565b60006001600160a01b038216610d335760405162461bcd60e51b815260206004820152602960248201527f4552433732313a2061646472657373207a65726f206973206e6f7420612076616044820152683634b21037bbb732b960b91b606482015260840161062c565b506001600160a01b031660009081526003602052604090205490565b600a6020526000908152604090208054610d6890612157565b80601f0160208091040260200160405190810160405280929190818152602001828054610d9490612157565b8015610de15780601f10610db657610100808354040283529160200191610de1565b820191906000526020600020905b815481529060010190602001808311610dc457829003601f168201915b505050505081565b600080610df4610f9f565b90506000610e0182610ed6565b9050600081600081518110610e1857610e18612460565b602002602001015160ff169050600082600181518110610e3a57610e3a612460565b602002602001015160ff169050600083600281518110610e5c57610e5c612460565b602002602001015160ff169050600084600381518110610e7e57610e7e612460565b602002602001015160ff16905060008882848688610e9c91906124bd565b610ea691906124bd565b610eb091906124bd565b610eba91906124d0565b9998505050505050505050565b60606001805461050e90612157565b60606000610ee383611591565b67ffffffffffffffff811115610efb57610efb611f70565b604051908082528060200260200182016040528015610f24578160200160208202803683370190505b5080519091505b8015610f8957610f3c600a856124fd565b82610f48600184612511565b81518110610f5857610f58612460565b60ff90921660209283029190910190910152610f75600a85612524565b935080610f8181612538565b915050610f2b565b5092915050565b610f9b3383836115ba565b5050565b600080601060009054906101000a90046001600160a01b03166001600160a01b031663feaf968c6040518163ffffffff1660e01b815260040160a060405180830381865afa158015610759573d6000803e3d6000fd5b600080610df4610703565b61100a3383611394565b6110265760405162461bcd60e51b815260040161062c90612191565b61103284848484611688565b50505050565b600080610df4610788565b606060006110cd611053846116bb565b6000858152600960209081526040808320600a8352818420600890935292205461108490610100900460ff166116bb565b6000888152600860205260409020546110a59062010000900460ff166116bb565b6040516020016110b99594939291906125de565b6040516020818303038152906040526117e7565b9050806040516020016110e09190612740565b604051602081830303815290604052915050919050565b60096020526000908152604090208054610d6890612157565b600e6020528160005260406000208181548110610b9357600080fd5b60006111383385610859565b905060006111463385610859565b905060006111543385610859565b604080516003808252608082019092529192506000919060208201606080368337019050509050838160008151811061118f5761118f612460565b60200260200101818152505082816001815181106111af576111af612460565b60200260200101818152505081816002815181106111cf576111cf612460565b602090810291909101810191909152336000908152600d82526040902082516111fa92840190611c93565b508183857f9a4e201f5ad830fba838f3fcac7a8af37ef43f7c478b1c38ef8cf3855b0d105460405160405180910390a450505050505050565b6001600160a01b0381166000908152600d602090815260409182902080548351818402810184019094528084526060939283018282801561129357602002820191906000526020600020905b81548152602001906001019080831161127f575b50505050509050919050565b60006001600160e01b03198216632483248360e11b14806104f957506104f982611939565b6000818152600260205260409020546001600160a01b03166113235760405162461bcd60e51b8152602060048201526018602482015277115490cdcc8c4e881a5b9d985b1a59081d1bdad95b88125160421b604482015260640161062c565b50565b600081815260046020526040902080546001600160a01b0319166001600160a01b038416908117909155819061135b826107f9565b6001600160a01b03167f8c5be1e5ebec7d5bd14f71427d1e84f3dd0314c0f7b2291e5b200ac8c7c3b92560405160405180910390a45050565b6000806113a0836107f9565b9050806001600160a01b0316846001600160a01b031614806113e757506001600160a01b0380821660009081526005602090815260408083209388168352929052205460ff165b8061140b5750836001600160a01b031661140084610591565b6001600160a01b0316145b949350505050565b826001600160a01b0316611426826107f9565b6001600160a01b03161461144c5760405162461bcd60e51b815260040161062c90612785565b6001600160a01b0382166114ae5760405162461bcd60e51b8152602060048201526024808201527f4552433732313a207472616e7366657220746f20746865207a65726f206164646044820152637265737360e01b606482015260840161062c565b826001600160a01b03166114c1826107f9565b6001600160a01b0316146114e75760405162461bcd60e51b815260040161062c90612785565b600081815260046020908152604080832080546001600160a01b03199081169091556001600160a01b0387811680865260038552838620805460001901905590871680865283862080546001019055868652600290945282852080549092168417909155905184937fddf252ad1be2c89b69c2b068fc378daa952ba7f163c4a11628f55a4df523b3ef91a4505050565b610f9b828260405180602001604052806000815250611989565b6000805b82156104f9576115a6600a84612524565b9250806115b28161225e565b915050611595565b816001600160a01b0316836001600160a01b03160361161b5760405162461bcd60e51b815260206004820152601960248201527f4552433732313a20617070726f766520746f2063616c6c657200000000000000604482015260640161062c565b6001600160a01b03838116600081815260056020908152604080832094871680845294825291829020805460ff191686151590811790915591519182527f17307eab39ab6107e8899845ad3d59bd9653f200f220920489ca2b5937696c31910160405180910390a3505050565b611693848484611413565b61169f848484846119bc565b6110325760405162461bcd60e51b815260040161062c906127ca565b6060816000036116e25750506040805180820190915260018152600360fc1b602082015290565b8160005b811561170c57806116f68161225e565b91506117059050600a83612524565b91506116e6565b60008167ffffffffffffffff81111561172757611727611f70565b6040519080825280601f01601f191660200182016040528015611751576020820181803683370190505b509050815b85156117de57611767600182612511565b90506000611776600a88612524565b61178190600a6124d0565b61178b9088612511565b61179690603061281c565b905060008160f81b9050808484815181106117b3576117b3612460565b60200101906001600160f81b031916908160001a9053506117d5600a89612524565b97505050611756565b50949350505050565b6060815160000361180657505060408051602081019091526000815290565b6000604051806060016040528060408152602001612890604091399050600060038451600261183591906124bd565b61183f9190612524565b61184a9060046124d0565b67ffffffffffffffff81111561186257611862611f70565b6040519080825280601f01601f19166020018201604052801561188c576020820181803683370190505b509050600182016020820185865187015b808210156118f8576003820191508151603f8160121c168501518453600184019350603f81600c1c168501518453600184019350603f8160061c168501518453600184019350603f811685015184535060018301925061189d565b505060038651066001811461191457600281146119275761077d565b603d6001830353603d600283035361077d565b603d6001830353509195945050505050565b60006001600160e01b031982166380ac58cd60e01b148061196a57506001600160e01b03198216635b5e139f60e01b145b806104f957506301ffc9a760e01b6001600160e01b03198316146104f9565b6119938383611abd565b6119a060008484846119bc565b6106cd5760405162461bcd60e51b815260040161062c906127ca565b60006001600160a01b0384163b15611ab257604051630a85bd0160e11b81526001600160a01b0385169063150b7a0290611a00903390899088908890600401612835565b6020604051808303816000875af1925050508015611a3b575060408051601f3d908101601f19168201909252611a3891810190612872565b60015b611a98573d808015611a69576040519150601f19603f3d011682016040523d82523d6000602084013e611a6e565b606091505b508051600003611a905760405162461bcd60e51b815260040161062c906127ca565b805181602001fd5b6001600160e01b031916630a85bd0160e11b14905061140b565b506001949350505050565b6001600160a01b038216611b135760405162461bcd60e51b815260206004820181905260248201527f4552433732313a206d696e7420746f20746865207a65726f2061646472657373604482015260640161062c565b6000818152600260205260409020546001600160a01b031615611b785760405162461bcd60e51b815260206004820152601c60248201527f4552433732313a20746f6b656e20616c7265616479206d696e74656400000000604482015260640161062c565b6000818152600260205260409020546001600160a01b031615611bdd5760405162461bcd60e51b815260206004820152601c60248201527f4552433732313a20746f6b656e20616c7265616479206d696e74656400000000604482015260640161062c565b6001600160a01b038216600081815260036020908152604080832080546001019055848352600290915280822080546001600160a01b0319168417905551839291907fddf252ad1be2c89b69c2b068fc378daa952ba7f163c4a11628f55a4df523b3ef908290a45050565b828054828255906000526020600020908101928215611c83579160200282015b82811115611c83578235825591602001919060010190611c68565b50611c8f929150611cce565b5090565b828054828255906000526020600020908101928215611c83579160200282015b82811115611c83578251825591602001919060010190611cb3565b5b80821115611c8f5760008155600101611ccf565b6001600160e01b03198116811461132357600080fd5b600060208284031215611d0b57600080fd5b8135611d1681611ce3565b9392505050565b60005b83811015611d38578181015183820152602001611d20565b50506000910152565b60008151808452611d59816020860160208601611d1d565b601f01601f19169290920160200192915050565b602081526000611d166020830184611d41565b600060208284031215611d9257600080fd5b5035919050565b80356001600160a01b0381168114611db057600080fd5b919050565b60008060408385031215611dc857600080fd5b611dd183611d99565b946020939093013593505050565b600080600060608486031215611df457600080fd5b611dfd84611d99565b9250611e0b60208501611d99565b9150604084013590509250925092565b803560038110611db057600080fd5b60008060408385031215611e3d57600080fd5b611e4683611d99565b9150611e5460208401611e1b565b90509250929050565b60008060208385031215611e7057600080fd5b823567ffffffffffffffff80821115611e8857600080fd5b818501915085601f830112611e9c57600080fd5b813581811115611eab57600080fd5b8660208260051b8501011115611ec057600080fd5b60209290920196919550909350505050565b600060208284031215611ee457600080fd5b611d1682611d99565b6020808252825182820181905260009190848201906040850190845b81811015611f2857835160ff1683529284019291840191600101611f09565b50909695505050505050565b60008060408385031215611f4757600080fd5b611f5083611d99565b915060208301358015158114611f6557600080fd5b809150509250929050565b634e487b7160e01b600052604160045260246000fd5b60008060008060808587031215611f9c57600080fd5b611fa585611d99565b9350611fb360208601611d99565b925060408501359150606085013567ffffffffffffffff80821115611fd757600080fd5b818701915087601f830112611feb57600080fd5b813581811115611ffd57611ffd611f70565b604051601f8201601f19908116603f0116810190838211818310171561202557612025611f70565b816040528281528a602084870101111561203e57600080fd5b82602086016020830137600060208483010152809550505050505092959194509250565b634e487b7160e01b600052602160045260246000fd5b606081016003851061209a57634e487b7160e01b600052602160045260246000fd5b93815260ff9283166020820152911660409091015290565b600080604083850312156120c557600080fd5b6120ce83611d99565b9150611e5460208401611d99565b6000806000606084860312156120f157600080fd5b6120fa84611e1b565b925061210860208501611e1b565b915061211660408501611e1b565b90509250925092565b6020808252825182820181905260009190848201906040850190845b81811015611f285783518352928401929184019160010161213b565b600181811c9082168061216b57607f821691505b60208210810361218b57634e487b7160e01b600052602260045260246000fd5b50919050565b6020808252602d908201527f4552433732313a2063616c6c6572206973206e6f7420746f6b656e206f776e6560408201526c1c881bdc88185c1c1c9bdd9959609a1b606082015260800190565b805169ffffffffffffffffffff81168114611db057600080fd5b600080600080600060a0868803121561221057600080fd5b612219866121de565b945060208601519350604086015192506060860151915061223c608087016121de565b90509295509295909350565b634e487b7160e01b600052601160045260246000fd5b60006001820161227057612270612248565b5060010190565b601f8211156106cd57600081815260208120601f850160051c8101602086101561229e5750805b601f850160051c820191505b818110156122bd578281556001016122aa565b505050505050565b815167ffffffffffffffff8111156122df576122df611f70565b6122f3816122ed8454612157565b84612277565b602080601f83116001811461232857600084156123105750858301515b600019600386901b1c1916600185901b1785556122bd565b600085815260208120601f198616915b8281101561235757888601518255948401946001909101908401612338565b50858210156123755787850151600019600388901b60f8161c191681555b5050505050600190811b01905550565b818103612390575050565b61239a8254612157565b67ffffffffffffffff8111156123b2576123b2611f70565b6123c0816122ed8454612157565b6000601f8211600181146123f457600083156123dc5750848201545b600019600385901b1c1916600184901b178455612459565b600085815260209020601f19841690600086815260209020845b8381101561242e578286015482556001958601959091019060200161240e565b508583101561244c5781850154600019600388901b60f8161c191681555b50505060018360011b0184555b5050505050565b634e487b7160e01b600052603260045260246000fd5b60208082526027908201527f596f75206d757374206f776e20746865206361726420746f2061646420697420604082015266746f206465636b60c81b606082015260800190565b808201808211156104f9576104f9612248565b80820281158282048414176104f9576104f9612248565b634e487b7160e01b600052601260045260246000fd5b60008261250c5761250c6124e7565b500690565b818103818111156104f9576104f9612248565b600082612533576125336124e7565b500490565b60008161254757612547612248565b506000190190565b60008151612561818560208601611d1d565b9290920192915050565b6000815461257881612157565b6001828116801561259057600181146125a5576125d4565b60ff19841687528215158302870194506125d4565b8560005260208060002060005b858110156125cb5781548a8201529084019082016125b2565b50505082870194505b5050505092915050565b693d913730b6b2911d101160b11b8152855160009061260481600a850160208b01611d1d565b61088b60f21b600a918401918201819052691134b6b0b3b2911d101160b11b600c830152612635601683018961256b565b9081527f2261747472696275746573223a205b7b2274726169745f74797065223a20224360028201526f03630b9b9911610113b30b63ab2911d160851b60228201529050612686603282018761256b565b9050611f4b60f21b81527f7b2274726169745f74797065223a202241747461636b222c202276616c75652260028201526101d160f51b60228201526127346127266126dd6127206126eb6126dd602487018b61254f565b611f4b60f21b815260020190565b7f7b2274726169745f74797065223a2022446566656e6365222c202276616c75658152620111d160ed1b602082015260230190565b8761254f565b615d7d60f01b815260020190565b98975050505050505050565b7f646174613a6170706c69636174696f6e2f6a736f6e3b6261736536342c00000081526000825161277881601d850160208701611d1d565b91909101601d0192915050565b60208082526025908201527f4552433732313a207472616e736665722066726f6d20696e636f72726563742060408201526437bbb732b960d91b606082015260800190565b60208082526032908201527f4552433732313a207472616e7366657220746f206e6f6e20455243373231526560408201527131b2b4bb32b91034b6b83632b6b2b73a32b960711b606082015260800190565b60ff81811683821601908111156104f9576104f9612248565b6001600160a01b038581168252841660208201526040810183905260806060820181905260009061286890830184611d41565b9695505050505050565b60006020828403121561288457600080fd5b8151611d1681611ce356fe4142434445464748494a4b4c4d4e4f505152535455565758595a6162636465666768696a6b6c6d6e6f707172737475767778797a303132333435363738392b2fa2646970667358221220ecdd39b4eb78515fa0563457259af032e993f81acf096e8e307404b53395ef0564736f6c6343000813003368747470733a2f2f667563687369612d64656665617465642d65726d696e652d3230382e6d7970696e6174612e636c6f75642f697066732f516d647a746a7379764b634c7a6a706341664e327957456772476334367641794b5455475a3661594643537475332f322e706e6768747470733a2f2f667563687369612d64656665617465642d65726d696e652d3230382e6d7970696e6174612e636c6f75642f697066732f516d647a746a7379764b634c7a6a706341664e327957456772476334367641794b5455475a3661594643537475332f332e706e6768747470733a2f2f667563687369612d64656665617465642d65726d696e652d3230382e6d7970696e6174612e636c6f75642f697066732f516d647a746a7379764b634c7a6a706341664e327957456772476334367641794b5455475a3661594643537475332f312e706e67",
  "devdoc": {
    "events": {
      "Approval(address,address,uint256)": {
        "details": "Emitted when `owner` enables `approved` to manage the `tokenId` token."
      },
      "ApprovalForAll(address,address,bool)": {
        "details": "Emitted when `owner` enables or disables (`approved`) `operator` to manage all of its assets."
      },
      "BatchMetadataUpdate(uint256,uint256)": {
        "details": "This event emits when the metadata of a range of tokens is changed. So that the third-party platforms such as NFT market could timely update the images and related attributes of the NFTs."
      },
      "MetadataUpdate(uint256)": {
        "details": "This event emits when the metadata of a token is changed. So that the third-party platforms such as NFT market could timely update the images and related attributes of the NFT."
      },
      "Transfer(address,address,uint256)": {
        "details": "Emitted when `tokenId` token is transferred from `from` to `to`."
      }
    },
    "kind": "dev",
    "methods": {
      "approve(address,uint256)": {
        "details": "See {IERC721-approve}."
      },
      "balanceOf(address)": {
        "details": "See {IERC721-balanceOf}."
      },
      "getApproved(uint256)": {
        "details": "See {IERC721-getApproved}."
      },
      "isApprovedForAll(address,address)": {
        "details": "See {IERC721-isApprovedForAll}."
      },
      "name()": {
        "details": "See {IERC721Metadata-name}."
      },
      "ownerOf(uint256)": {
        "details": "See {IERC721-ownerOf}."
      },
      "safeTransferFrom(address,address,uint256)": {
        "details": "See {IERC721-safeTransferFrom}."
      },
      "safeTransferFrom(address,address,uint256,bytes)": {
        "details": "See {IERC721-safeTransferFrom}."
      },
      "setApprovalForAll(address,bool)": {
        "details": "See {IERC721-setApprovalForAll}."
      },
      "symbol()": {
        "details": "See {IERC721Metadata-symbol}."
      },
      "transferFrom(address,address,uint256)": {
        "details": "See {IERC721-transferFrom}."
      }
    },
    "version": 1
  },
  "userdoc": {
    "kind": "user",
    "methods": {},
    "version": 1
  },
  "storageLayout": {
    "storage": [
      {
        "astId": 99,
        "contract": "contracts/MarketClash.sol:MarketClash",
        "label": "_name",
        "offset": 0,
        "slot": "0",
        "type": "t_string_storage"
      },
      {
        "astId": 101,
        "contract": "contracts/MarketClash.sol:MarketClash",
        "label": "_symbol",
        "offset": 0,
        "slot": "1",
        "type": "t_string_storage"
      },
      {
        "astId": 105,
        "contract": "contracts/MarketClash.sol:MarketClash",
        "label": "_owners",
        "offset": 0,
        "slot": "2",
        "type": "t_mapping(t_uint256,t_address)"
      },
      {
        "astId": 109,
        "contract": "contracts/MarketClash.sol:MarketClash",
        "label": "_balances",
        "offset": 0,
        "slot": "3",
        "type": "t_mapping(t_address,t_uint256)"
      },
      {
        "astId": 113,
        "contract": "contracts/MarketClash.sol:MarketClash",
        "label": "_tokenApprovals",
        "offset": 0,
        "slot": "4",
        "type": "t_mapping(t_uint256,t_address)"
      },
      {
        "astId": 119,
        "contract": "contracts/MarketClash.sol:MarketClash",
        "label": "_operatorApprovals",
        "offset": 0,
        "slot": "5",
        "type": "t_mapping(t_address,t_mapping(t_address,t_bool))"
      },
      {
        "astId": 1150,
        "contract": "contracts/MarketClash.sol:MarketClash",
        "label": "_tokenURIs",
        "offset": 0,
        "slot": "6",
        "type": "t_mapping(t_uint256,t_string_storage)"
      },
      {
        "astId": 3066,
        "contract": "contracts/MarketClash.sol:MarketClash",
        "label": "tokenIdCounter",
        "offset": 0,
        "slot": "7",
        "type": "t_struct(Counter)1722_storage"
      },
      {
        "astId": 3071,
        "contract": "contracts/MarketClash.sol:MarketClash",
        "label": "attributes",
        "offset": 0,
        "slot": "8",
        "type": "t_mapping(t_uint256,t_struct(Attr)3056_storage)"
      },
      {
        "astId": 3075,
        "contract": "contracts/MarketClash.sol:MarketClash",
        "label": "imageMapping",
        "offset": 0,
        "slot": "9",
        "type": "t_mapping(t_uint256,t_string_storage)"
      },
      {
        "astId": 3079,
        "contract": "contracts/MarketClash.sol:MarketClash",
        "label": "classMapping",
        "offset": 0,
        "slot": "10",
        "type": "t_mapping(t_uint256,t_string_storage)"
      },
      {
        "astId": 3083,
        "contract": "contracts/MarketClash.sol:MarketClash",
        "label": "tokenIdAttack",
        "offset": 0,
        "slot": "11",
        "type": "t_mapping(t_uint256,t_uint256)"
      },
      {
        "astId": 3087,
        "contract": "contracts/MarketClash.sol:MarketClash",
        "label": "tokenIdDefense",
        "offset": 0,
        "slot": "12",
        "type": "t_mapping(t_uint256,t_uint256)"
      },
      {
        "astId": 3092,
        "contract": "contracts/MarketClash.sol:MarketClash",
        "label": "recentOpenedPackByPlayer",
        "offset": 0,
        "slot": "13",
        "type": "t_mapping(t_address,t_array(t_uint256)dyn_storage)"
      },
      {
        "astId": 3097,
        "contract": "contracts/MarketClash.sol:MarketClash",
        "label": "deckOfPlayer",
        "offset": 0,
        "slot": "14",
        "type": "t_mapping(t_address,t_array(t_uint256)dyn_storage)"
      },
      {
        "astId": 3100,
        "contract": "contracts/MarketClash.sol:MarketClash",
        "label": "priceFeedBtc",
        "offset": 0,
        "slot": "15",
        "type": "t_contract(AggregatorV3Interface)45"
      },
      {
        "astId": 3103,
        "contract": "contracts/MarketClash.sol:MarketClash",
        "label": "priceFeedETH",
        "offset": 0,
        "slot": "16",
        "type": "t_contract(AggregatorV3Interface)45"
      },
      {
        "astId": 3106,
        "contract": "contracts/MarketClash.sol:MarketClash",
        "label": "priceFeedLink",
        "offset": 0,
        "slot": "17",
        "type": "t_contract(AggregatorV3Interface)45"
      },
      {
        "astId": 3110,
        "contract": "contracts/MarketClash.sol:MarketClash",
        "label": "btcuscAddress",
        "offset": 0,
        "slot": "18",
        "type": "t_address"
      },
      {
        "astId": 3113,
        "contract": "contracts/MarketClash.sol:MarketClash",
        "label": "ethusdAddress",
        "offset": 0,
        "slot": "19",
        "type": "t_address"
      },
      {
        "astId": 3116,
        "contract": "contracts/MarketClash.sol:MarketClash",
        "label": "linkusdAddress",
        "offset": 0,
        "slot": "20",
        "type": "t_address"
      },
      {
        "astId": 3119,
        "contract": "contracts/MarketClash.sol:MarketClash",
        "label": "highMultiplier",
        "offset": 0,
        "slot": "21",
        "type": "t_uint256"
      },
      {
        "astId": 3122,
        "contract": "contracts/MarketClash.sol:MarketClash",
        "label": "mediumMultiplier",
        "offset": 0,
        "slot": "22",
        "type": "t_uint256"
      },
      {
        "astId": 3125,
        "contract": "contracts/MarketClash.sol:MarketClash",
        "label": "lowMultiplier",
        "offset": 0,
        "slot": "23",
        "type": "t_uint256"
      },
      {
        "astId": 3128,
        "contract": "contracts/MarketClash.sol:MarketClash",
        "label": "btcImage",
        "offset": 0,
        "slot": "24",
        "type": "t_string_storage"
      },
      {
        "astId": 3131,
        "contract": "contracts/MarketClash.sol:MarketClash",
        "label": "ethImage",
        "offset": 0,
        "slot": "25",
        "type": "t_string_storage"
      },
      {
        "astId": 3134,
        "contract": "contracts/MarketClash.sol:MarketClash",
        "label": "linkImage",
        "offset": 0,
        "slot": "26",
        "type": "t_string_storage"
      },
      {
        "astId": 3137,
        "contract": "contracts/MarketClash.sol:MarketClash",
        "label": "currentTokenId",
        "offset": 0,
        "slot": "27",
        "type": "t_uint256"
      }
    ],
    "types": {
      "t_address": {
        "encoding": "inplace",
        "label": "address",
        "numberOfBytes": "20"
      },
      "t_array(t_uint256)dyn_storage": {
        "base": "t_uint256",
        "encoding": "dynamic_array",
        "label": "uint256[]",
        "numberOfBytes": "32"
      },
      "t_bool": {
        "encoding": "inplace",
        "label": "bool",
        "numberOfBytes": "1"
      },
      "t_contract(AggregatorV3Interface)45": {
        "encoding": "inplace",
        "label": "contract AggregatorV3Interface",
        "numberOfBytes": "20"
      },
      "t_enum(Class)3048": {
        "encoding": "inplace",
        "label": "enum MarketClash.Class",
        "numberOfBytes": "1"
      },
      "t_mapping(t_address,t_array(t_uint256)dyn_storage)": {
        "encoding": "mapping",
        "key": "t_address",
        "label": "mapping(address => uint256[])",
        "numberOfBytes": "32",
        "value": "t_array(t_uint256)dyn_storage"
      },
      "t_mapping(t_address,t_bool)": {
        "encoding": "mapping",
        "key": "t_address",
        "label": "mapping(address => bool)",
        "numberOfBytes": "32",
        "value": "t_bool"
      },
      "t_mapping(t_address,t_mapping(t_address,t_bool))": {
        "encoding": "mapping",
        "key": "t_address",
        "label": "mapping(address => mapping(address => bool))",
        "numberOfBytes": "32",
        "value": "t_mapping(t_address,t_bool)"
      },
      "t_mapping(t_address,t_uint256)": {
        "encoding": "mapping",
        "key": "t_address",
        "label": "mapping(address => uint256)",
        "numberOfBytes": "32",
        "value": "t_uint256"
      },
      "t_mapping(t_uint256,t_address)": {
        "encoding": "mapping",
        "key": "t_uint256",
        "label": "mapping(uint256 => address)",
        "numberOfBytes": "32",
        "value": "t_address"
      },
      "t_mapping(t_uint256,t_string_storage)": {
        "encoding": "mapping",
        "key": "t_uint256",
        "label": "mapping(uint256 => string)",
        "numberOfBytes": "32",
        "value": "t_string_storage"
      },
      "t_mapping(t_uint256,t_struct(Attr)3056_storage)": {
        "encoding": "mapping",
        "key": "t_uint256",
        "label": "mapping(uint256 => struct MarketClash.Attr)",
        "numberOfBytes": "32",
        "value": "t_struct(Attr)3056_storage"
      },
      "t_mapping(t_uint256,t_uint256)": {
        "encoding": "mapping",
        "key": "t_uint256",
        "label": "mapping(uint256 => uint256)",
        "numberOfBytes": "32",
        "value": "t_uint256"
      },
      "t_string_storage": {
        "encoding": "bytes",
        "label": "string",
        "numberOfBytes": "32"
      },
      "t_struct(Attr)3056_storage": {
        "encoding": "inplace",
        "label": "struct MarketClash.Attr",
        "members": [
          {
            "astId": 3051,
            "contract": "contracts/MarketClash.sol:MarketClash",
            "label": "Class",
            "offset": 0,
            "slot": "0",
            "type": "t_enum(Class)3048"
          },
          {
            "astId": 3053,
            "contract": "contracts/MarketClash.sol:MarketClash",
            "label": "attack",
            "offset": 1,
            "slot": "0",
            "type": "t_uint8"
          },
          {
            "astId": 3055,
            "contract": "contracts/MarketClash.sol:MarketClash",
            "label": "defence",
            "offset": 2,
            "slot": "0",
            "type": "t_uint8"
          }
        ],
        "numberOfBytes": "32"
      },
      "t_struct(Counter)1722_storage": {
        "encoding": "inplace",
        "label": "struct Counters.Counter",
        "members": [
          {
            "astId": 1721,
            "contract": "contracts/MarketClash.sol:MarketClash",
            "label": "_value",
            "offset": 0,
            "slot": "0",
            "type": "t_uint256"
          }
        ],
        "numberOfBytes": "32"
      },
      "t_uint256": {
        "encoding": "inplace",
        "label": "uint256",
        "numberOfBytes": "32"
      },
      "t_uint8": {
        "encoding": "inplace",
        "label": "uint8",
        "numberOfBytes": "1"
      }
    }
  }
}