{
  "address": "0x2853CB399033447AAf3A14c8c4bC41Be43c0856e",
  "abi": [
    {
      "inputs": [],
      "stateMutability": "nonpayable",
      "type": "constructor"
    },
    {
      "anonymous": false,
      "inputs": [
        {
          "indexed": true,
          "internalType": "address",
          "name": "owner",
          "type": "address"
        },
        {
          "indexed": true,
          "internalType": "address",
          "name": "approved",
          "type": "address"
        },
        {
          "indexed": true,
          "internalType": "uint256",
          "name": "tokenId",
          "type": "uint256"
        }
      ],
      "name": "Approval",
      "type": "event"
    },
    {
      "anonymous": false,
      "inputs": [
        {
          "indexed": true,
          "internalType": "address",
          "name": "owner",
          "type": "address"
        },
        {
          "indexed": true,
          "internalType": "address",
          "name": "operator",
          "type": "address"
        },
        {
          "indexed": false,
          "internalType": "bool",
          "name": "approved",
          "type": "bool"
        }
      ],
      "name": "ApprovalForAll",
      "type": "event"
    },
    {
      "anonymous": false,
      "inputs": [
        {
          "indexed": false,
          "internalType": "uint256",
          "name": "_fromTokenId",
          "type": "uint256"
        },
        {
          "indexed": false,
          "internalType": "uint256",
          "name": "_toTokenId",
          "type": "uint256"
        }
      ],
      "name": "BatchMetadataUpdate",
      "type": "event"
    },
    {
      "anonymous": false,
      "inputs": [
        {
          "indexed": false,
          "internalType": "uint256",
          "name": "_tokenId",
          "type": "uint256"
        }
      ],
      "name": "MetadataUpdate",
      "type": "event"
    },
    {
      "anonymous": false,
      "inputs": [
        {
          "indexed": true,
          "internalType": "address",
          "name": "from",
          "type": "address"
        },
        {
          "indexed": true,
          "internalType": "address",
          "name": "to",
          "type": "address"
        },
        {
          "indexed": true,
          "internalType": "uint256",
          "name": "tokenId",
          "type": "uint256"
        }
      ],
      "name": "Transfer",
      "type": "event"
    },
    {
      "inputs": [
        {
          "internalType": "address",
          "name": "to",
          "type": "address"
        },
        {
          "internalType": "uint256",
          "name": "tokenId",
          "type": "uint256"
        }
      ],
      "name": "approve",
      "outputs": [],
      "stateMutability": "nonpayable",
      "type": "function"
    },
    {
      "inputs": [
        {
          "internalType": "uint256",
          "name": "",
          "type": "uint256"
        }
      ],
      "name": "attributes",
      "outputs": [
        {
          "internalType": "enum MarketClash.Class",
          "name": "Class",
          "type": "uint8"
        },
        {
          "internalType": "uint8",
          "name": "attack",
          "type": "uint8"
        },
        {
          "internalType": "uint8",
          "name": "defence",
          "type": "uint8"
        }
      ],
      "stateMutability": "view",
      "type": "function"
    },
    {
      "inputs": [
        {
          "internalType": "address",
          "name": "owner",
          "type": "address"
        }
      ],
      "name": "balanceOf",
      "outputs": [
        {
          "internalType": "uint256",
          "name": "",
          "type": "uint256"
        }
      ],
      "stateMutability": "view",
      "type": "function"
    },
    {
      "inputs": [
        {
          "internalType": "uint256",
          "name": "",
          "type": "uint256"
        }
      ],
      "name": "classMapping",
      "outputs": [
        {
          "internalType": "string",
          "name": "",
          "type": "string"
        }
      ],
      "stateMutability": "view",
      "type": "function"
    },
    {
      "inputs": [
        {
          "internalType": "uint256",
          "name": "tokenId",
          "type": "uint256"
        }
      ],
      "name": "getApproved",
      "outputs": [
        {
          "internalType": "address",
          "name": "",
          "type": "address"
        }
      ],
      "stateMutability": "view",
      "type": "function"
    },
    {
      "inputs": [],
      "name": "getBtcPrice",
      "outputs": [
        {
          "internalType": "uint256",
          "name": "",
          "type": "uint256"
        }
      ],
      "stateMutability": "view",
      "type": "function"
    },
    {
      "inputs": [],
      "name": "getETHPrice",
      "outputs": [
        {
          "internalType": "uint256",
          "name": "",
          "type": "uint256"
        }
      ],
      "stateMutability": "view",
      "type": "function"
    },
    {
      "inputs": [],
      "name": "getLinkPrice",
      "outputs": [
        {
          "internalType": "uint256",
          "name": "",
          "type": "uint256"
        }
      ],
      "stateMutability": "view",
      "type": "function"
    },
    {
      "inputs": [
        {
          "internalType": "uint256",
          "name": "multiplier",
          "type": "uint256"
        }
      ],
      "name": "getStatBtc",
      "outputs": [
        {
          "internalType": "uint256",
          "name": "",
          "type": "uint256"
        }
      ],
      "stateMutability": "view",
      "type": "function"
    },
    {
      "inputs": [
        {
          "internalType": "uint256",
          "name": "multiplier",
          "type": "uint256"
        }
      ],
      "name": "getStatETH",
      "outputs": [
        {
          "internalType": "uint256",
          "name": "",
          "type": "uint256"
        }
      ],
      "stateMutability": "view",
      "type": "function"
    },
    {
      "inputs": [
        {
          "internalType": "uint256",
          "name": "multiplier",
          "type": "uint256"
        }
      ],
      "name": "getStatLink",
      "outputs": [
        {
          "internalType": "uint256",
          "name": "",
          "type": "uint256"
        }
      ],
      "stateMutability": "view",
      "type": "function"
    },
    {
      "inputs": [
        {
          "internalType": "uint256",
          "name": "",
          "type": "uint256"
        }
      ],
      "name": "imageMapping",
      "outputs": [
        {
          "internalType": "string",
          "name": "",
          "type": "string"
        }
      ],
      "stateMutability": "view",
      "type": "function"
    },
    {
      "inputs": [
        {
          "internalType": "address",
          "name": "owner",
          "type": "address"
        },
        {
          "internalType": "address",
          "name": "operator",
          "type": "address"
        }
      ],
      "name": "isApprovedForAll",
      "outputs": [
        {
          "internalType": "bool",
          "name": "",
          "type": "bool"
        }
      ],
      "stateMutability": "view",
      "type": "function"
    },
    {
      "inputs": [
        {
          "internalType": "address",
          "name": "to",
          "type": "address"
        },
        {
          "internalType": "enum MarketClash.Class",
          "name": "_class",
          "type": "uint8"
        }
      ],
      "name": "mint",
      "outputs": [],
      "stateMutability": "nonpayable",
      "type": "function"
    },
    {
      "inputs": [],
      "name": "name",
      "outputs": [
        {
          "internalType": "string",
          "name": "",
          "type": "string"
        }
      ],
      "stateMutability": "view",
      "type": "function"
    },
    {
      "inputs": [
        {
          "internalType": "uint256",
          "name": "tokenId",
          "type": "uint256"
        }
      ],
      "name": "ownerOf",
      "outputs": [
        {
          "internalType": "address",
          "name": "",
          "type": "address"
        }
      ],
      "stateMutability": "view",
      "type": "function"
    },
    {
      "inputs": [
        {
          "internalType": "address",
          "name": "from",
          "type": "address"
        },
        {
          "internalType": "address",
          "name": "to",
          "type": "address"
        },
        {
          "internalType": "uint256",
          "name": "tokenId",
          "type": "uint256"
        }
      ],
      "name": "safeTransferFrom",
      "outputs": [],
      "stateMutability": "nonpayable",
      "type": "function"
    },
    {
      "inputs": [
        {
          "internalType": "address",
          "name": "from",
          "type": "address"
        },
        {
          "internalType": "address",
          "name": "to",
          "type": "address"
        },
        {
          "internalType": "uint256",
          "name": "tokenId",
          "type": "uint256"
        },
        {
          "internalType": "bytes",
          "name": "data",
          "type": "bytes"
        }
      ],
      "name": "safeTransferFrom",
      "outputs": [],
      "stateMutability": "nonpayable",
      "type": "function"
    },
    {
      "inputs": [
        {
          "internalType": "address",
          "name": "operator",
          "type": "address"
        },
        {
          "internalType": "bool",
          "name": "approved",
          "type": "bool"
        }
      ],
      "name": "setApprovalForAll",
      "outputs": [],
      "stateMutability": "nonpayable",
      "type": "function"
    },
    {
      "inputs": [
        {
          "internalType": "bytes4",
          "name": "interfaceId",
          "type": "bytes4"
        }
      ],
      "name": "supportsInterface",
      "outputs": [
        {
          "internalType": "bool",
          "name": "",
          "type": "bool"
        }
      ],
      "stateMutability": "view",
      "type": "function"
    },
    {
      "inputs": [],
      "name": "symbol",
      "outputs": [
        {
          "internalType": "string",
          "name": "",
          "type": "string"
        }
      ],
      "stateMutability": "view",
      "type": "function"
    },
    {
      "inputs": [
        {
          "internalType": "uint256",
          "name": "",
          "type": "uint256"
        }
      ],
      "name": "tokenIdAttack",
      "outputs": [
        {
          "internalType": "uint256",
          "name": "",
          "type": "uint256"
        }
      ],
      "stateMutability": "view",
      "type": "function"
    },
    {
      "inputs": [],
      "name": "tokenIdCounter",
      "outputs": [
        {
          "internalType": "uint256",
          "name": "_value",
          "type": "uint256"
        }
      ],
      "stateMutability": "view",
      "type": "function"
    },
    {
      "inputs": [
        {
          "internalType": "uint256",
          "name": "",
          "type": "uint256"
        }
      ],
      "name": "tokenIdDefense",
      "outputs": [
        {
          "internalType": "uint256",
          "name": "",
          "type": "uint256"
        }
      ],
      "stateMutability": "view",
      "type": "function"
    },
    {
      "inputs": [
        {
          "internalType": "uint256",
          "name": "tokenId",
          "type": "uint256"
        }
      ],
      "name": "tokenURI",
      "outputs": [
        {
          "internalType": "string",
          "name": "",
          "type": "string"
        }
      ],
      "stateMutability": "view",
      "type": "function"
    },
    {
      "inputs": [
        {
          "internalType": "address",
          "name": "from",
          "type": "address"
        },
        {
          "internalType": "address",
          "name": "to",
          "type": "address"
        },
        {
          "internalType": "uint256",
          "name": "tokenId",
          "type": "uint256"
        }
      ],
      "name": "transferFrom",
      "outputs": [],
      "stateMutability": "nonpayable",
      "type": "function"
    },
    {
      "inputs": [
        {
          "internalType": "uint256",
          "name": "number",
          "type": "uint256"
        }
      ],
      "name": "uintToArray",
      "outputs": [
        {
          "internalType": "uint8[]",
          "name": "",
          "type": "uint8[]"
        }
      ],
      "stateMutability": "pure",
      "type": "function"
    }
  ],
  "transactionHash": "0xda7928117cb6d4f4216b81e7b29937fa12716ddb6c5e34aa09bd81292b8b70b3",
  "args": [],
  "numDeployments": 3,
  "solcInputHash": "59d21cc21b54171de7938c0615b73e55",
  "bytecode": "0x601080546001600160a01b03199081167387dce67002e66c17bc0d723fe20d736b80caafda179091556011805482167359f1ec1f10bd7ed9b938431086bc1d9e233ecf411790556012805490911673ac3e04999aefe44d508cb3f9b972b0ecd07c1efb179055600360135560026014556001601555610120604052606c6080818152906200278560a03960169062000098908262000252565b506040518060a00160405280606c8152602001620026ad606c9139601790620000c2908262000252565b506040518060a00160405280606c815260200162002719606c9139601890620000ec908262000252565b506000601955348015620000ff57600080fd5b506040518060400160405280600b81526020016a09ac2e4d6cae886d8c2e6d60ab1b815250604051806040016040528060028152602001614d4b60f01b815250816000908162000150919062000252565b5060016200015f828262000252565b5050601054600d80546001600160a01b039283166001600160a01b031991821617909155601154600e8054918416918316919091179055601254600f8054919093169116179055506200031e565b634e487b7160e01b600052604160045260246000fd5b600181811c90821680620001d857607f821691505b602082108103620001f957634e487b7160e01b600052602260045260246000fd5b50919050565b601f8211156200024d57600081815260208120601f850160051c81016020861015620002285750805b601f850160051c820191505b81811015620002495782815560010162000234565b5050505b505050565b81516001600160401b038111156200026e576200026e620001ad565b62000286816200027f8454620001c3565b84620001ff565b602080601f831160018114620002be5760008415620002a55750858301515b600019600386901b1c1916600185901b17855562000249565b600085815260208120601f198616915b82811015620002ef57888601518255948401946001909101908401620002ce565b50858210156200030e5787850151600019600388901b60f8161c191681555b5050505050600190811b01905550565b61237f806200032e6000396000f3fe608060405234801561001057600080fd5b50600436106101a95760003560e01c806383acda61116100f9578063b16045bc11610097578063c87b56dd11610071578063c87b56dd14610394578063d05dcc6a146103a7578063d77691ee146103ec578063e985e9c5146103ff57600080fd5b8063b16045bc1461035b578063b88d4fde1461036e578063bb92947b1461038157600080fd5b806398bdf6f5116100d357806398bdf6f5146103165780639ba82a3314610320578063a22cb46514610340578063a607a8d91461035357600080fd5b806383acda61146102db578063919f0649146102ee57806395d89b411461030e57600080fd5b80632dddd49c116101665780636352211e116101405780636352211e1461028f578063691562a0146102a257806370a08231146102b55780637afc8662146102c857600080fd5b80632dddd49c1461026c5780633a3610bc1461027457806342842e0e1461027c57600080fd5b806301ffc9a7146101ae57806306fdde03146101d6578063081812fc146101eb578063095ea7b3146102165780631ac3a0fb1461022b57806323b872dd14610259575b600080fd5b6101c16101bc3660046118bb565b610412565b60405190151581526020015b60405180910390f35b6101de610423565b6040516101cd919061192f565b6101fe6101f9366004611942565b6104b5565b6040516001600160a01b0390911681526020016101cd565b610229610224366004611977565b6104dc565b005b61024b610239366004611942565b600b6020526000908152604090205481565b6040519081526020016101cd565b6102296102673660046119a1565b6105f6565b61024b610627565b61024b6106ac565b61022961028a3660046119a1565b610702565b6101fe61029d366004611942565b61071d565b6102296102b03660046119dd565b61077d565b61024b6102c3366004611a18565b610aa7565b6101de6102d6366004611942565b610b2d565b61024b6102e9366004611942565b610bc7565b61024b6102fc366004611942565b600c6020526000908152604090205481565b6101de610ca5565b60075461024b9081565b61033361032e366004611942565b610cb4565b6040516101cd9190611a33565b61022961034e366004611a7a565b610d6e565b61024b610d7d565b61024b610369366004611942565b610dd3565b61022961037c366004611ac1565b610dde565b61024b61038f366004611942565b610e16565b6101de6103a2366004611942565b610e21565b6103dd6103b5366004611942565b60086020526000908152604090205460ff808216916101008104821691620100009091041683565b6040516101cd93929190611bb3565b6101de6103fa366004611942565b610ed5565b6101c161040d366004611bed565b610eee565b600061041d82610f1c565b92915050565b60606000805461043290611c20565b80601f016020809104026020016040519081016040528092919081815260200182805461045e90611c20565b80156104ab5780601f10610480576101008083540402835291602001916104ab565b820191906000526020600020905b81548152906001019060200180831161048e57829003601f168201915b5050505050905090565b60006104c082610f41565b506000908152600460205260409020546001600160a01b031690565b60006104e78261071d565b9050806001600160a01b0316836001600160a01b0316036105595760405162461bcd60e51b815260206004820152602160248201527f4552433732313a20617070726f76616c20746f2063757272656e74206f776e656044820152603960f91b60648201526084015b60405180910390fd5b336001600160a01b038216148061057557506105758133610eee565b6105e75760405162461bcd60e51b815260206004820152603d60248201527f4552433732313a20617070726f76652063616c6c6572206973206e6f7420746f60448201527f6b656e206f776e6572206f7220617070726f76656420666f7220616c6c0000006064820152608401610550565b6105f18383610fa3565b505050565b6106003382611011565b61061c5760405162461bcd60e51b815260040161055090611c5a565b6105f1838383611070565b600080600f60009054906101000a90046001600160a01b03166001600160a01b031663feaf968c6040518163ffffffff1660e01b815260040160a060405180830381865afa15801561067d573d6000803e3d6000fd5b505050506040513d601f19601f820116820180604052508101906106a19190611cc1565b509195945050505050565b600080600d60009054906101000a90046001600160a01b03166001600160a01b031663feaf968c6040518163ffffffff1660e01b815260040160a060405180830381865afa15801561067d573d6000803e3d6000fd5b6105f183838360405180602001604052806000815250610dde565b6000818152600260205260408120546001600160a01b03168061041d5760405162461bcd60e51b8152602060048201526018602482015277115490cdcc8c4e881a5b9d985b1a59081d1bdad95b88125160421b6044820152606401610550565b600081600281111561079157610791611b9d565b14806107ae575060018160028111156107ac576107ac611b9d565b145b806107ca575060028160028111156107c8576107c8611b9d565b145b6108065760405162461bcd60e51b815260206004820152600d60248201526c496e76616c696420636c61737360981b6044820152606401610550565b6019805490600061081683611d27565b90915550506019546000808084600281111561083457610834611b9d565b036108bd57610844601554610e16565b9150610851601354610e16565b6000848152600b60209081526040808320869055600c825280832084905580518082018252600381526242746360e81b81840152878452600a90925290912091925061089d9082611d8e565b5060008381526009602052604090206108b7601682611e4e565b506109fe565b60018460028111156108d1576108d1611b9d565b03610954576108e1601454610bc7565b91506108ee601454610bc7565b6000848152600b60209081526040808320869055600c825280832084905580518082018252600381526208ae8d60eb1b81840152878452600a90925290912091925061093a9082611d8e565b5060008381526009602052604090206108b7601782611e4e565b600284600281111561096857610968611b9d565b036109fe576000838152600b60209081526040808320859055600c909152902081905560135461099790610dd3565b91506109a4601554610dd3565b9050604051806040016040528060048152602001634c696e6b60e01b815250600a600085815260200190815260200160002090816109e29190611d8e565b5060008381526009602052604090206109fc601882611e4e565b505b6040518060600160405280856002811115610a1b57610a1b611b9d565b815260ff808516602080840191909152908416604092830152600086815260089091522081518154829060ff19166001836002811115610a5d57610a5d611b9d565b02179055506020820151815460409093015162ffff001990931661010060ff9283160262ff0000191617620100009190931602919091179055610aa085846111d4565b5050505050565b60006001600160a01b038216610b115760405162461bcd60e51b815260206004820152602960248201527f4552433732313a2061646472657373207a65726f206973206e6f7420612076616044820152683634b21037bbb732b960b91b6064820152608401610550565b506001600160a01b031660009081526003602052604090205490565b600a6020526000908152604090208054610b4690611c20565b80601f0160208091040260200160405190810160405280929190818152602001828054610b7290611c20565b8015610bbf5780601f10610b9457610100808354040283529160200191610bbf565b820191906000526020600020905b815481529060010190602001808311610ba257829003601f168201915b505050505081565b600080610bd2610d7d565b90506000610bdf82610cb4565b9050600081600081518110610bf657610bf6611f21565b602002602001015160ff169050600082600181518110610c1857610c18611f21565b602002602001015160ff169050600083600281518110610c3a57610c3a611f21565b602002602001015160ff169050600084600381518110610c5c57610c5c611f21565b602002602001015160ff16905060008882848688610c7a9190611f37565b610c849190611f37565b610c8e9190611f37565b610c989190611f4a565b9998505050505050505050565b60606001805461043290611c20565b60606000610cc1836111ee565b67ffffffffffffffff811115610cd957610cd9611aab565b604051908082528060200260200182016040528015610d02578160200160208202803683370190505b5080519091505b8015610d6757610d1a600a85611f77565b82610d26600184611f8b565b81518110610d3657610d36611f21565b60ff90921660209283029190910190910152610d53600a85611f9e565b935080610d5f81611fb2565b915050610d09565b5092915050565b610d79338383611217565b5050565b600080600e60009054906101000a90046001600160a01b03166001600160a01b031663feaf968c6040518163ffffffff1660e01b815260040160a060405180830381865afa15801561067d573d6000803e3d6000fd5b600080610bd2610627565b610de83383611011565b610e045760405162461bcd60e51b815260040161055090611c5a565b610e10848484846112e5565b50505050565b600080610bd26106ac565b60606000610eab610e3184611318565b6000858152600960209081526040808320600a83528184206008909352922054610e6290610100900460ff16611318565b600088815260086020526040902054610e839062010000900460ff16611318565b604051602001610e97959493929190612058565b604051602081830303815290604052611444565b905080604051602001610ebe91906121ba565b604051602081830303815290604052915050919050565b60096020526000908152604090208054610b4690611c20565b6001600160a01b03918216600090815260056020908152604080832093909416825291909152205460ff1690565b60006001600160e01b03198216632483248360e11b148061041d575061041d82611596565b6000818152600260205260409020546001600160a01b0316610fa05760405162461bcd60e51b8152602060048201526018602482015277115490cdcc8c4e881a5b9d985b1a59081d1bdad95b88125160421b6044820152606401610550565b50565b600081815260046020526040902080546001600160a01b0319166001600160a01b0384169081179091558190610fd88261071d565b6001600160a01b03167f8c5be1e5ebec7d5bd14f71427d1e84f3dd0314c0f7b2291e5b200ac8c7c3b92560405160405180910390a45050565b60008061101d8361071d565b9050806001600160a01b0316846001600160a01b0316148061104457506110448185610eee565b806110685750836001600160a01b031661105d846104b5565b6001600160a01b0316145b949350505050565b826001600160a01b03166110838261071d565b6001600160a01b0316146110a95760405162461bcd60e51b8152600401610550906121ff565b6001600160a01b03821661110b5760405162461bcd60e51b8152602060048201526024808201527f4552433732313a207472616e7366657220746f20746865207a65726f206164646044820152637265737360e01b6064820152608401610550565b826001600160a01b031661111e8261071d565b6001600160a01b0316146111445760405162461bcd60e51b8152600401610550906121ff565b600081815260046020908152604080832080546001600160a01b03199081169091556001600160a01b0387811680865260038552838620805460001901905590871680865283862080546001019055868652600290945282852080549092168417909155905184937fddf252ad1be2c89b69c2b068fc378daa952ba7f163c4a11628f55a4df523b3ef91a4505050565b610d798282604051806020016040528060008152506115e6565b6000805b821561041d57611203600a84611f9e565b92508061120f81611d27565b9150506111f2565b816001600160a01b0316836001600160a01b0316036112785760405162461bcd60e51b815260206004820152601960248201527f4552433732313a20617070726f766520746f2063616c6c6572000000000000006044820152606401610550565b6001600160a01b03838116600081815260056020908152604080832094871680845294825291829020805460ff191686151590811790915591519182527f17307eab39ab6107e8899845ad3d59bd9653f200f220920489ca2b5937696c31910160405180910390a3505050565b6112f0848484611070565b6112fc84848484611619565b610e105760405162461bcd60e51b815260040161055090612244565b60608160000361133f5750506040805180820190915260018152600360fc1b602082015290565b8160005b8115611369578061135381611d27565b91506113629050600a83611f9e565b9150611343565b60008167ffffffffffffffff81111561138457611384611aab565b6040519080825280601f01601f1916602001820160405280156113ae576020820181803683370190505b509050815b851561143b576113c4600182611f8b565b905060006113d3600a88611f9e565b6113de90600a611f4a565b6113e89088611f8b565b6113f3906030612296565b905060008160f81b90508084848151811061141057611410611f21565b60200101906001600160f81b031916908160001a905350611432600a89611f9e565b975050506113b3565b50949350505050565b6060815160000361146357505060408051602081019091526000815290565b600060405180606001604052806040815260200161230a60409139905060006003845160026114929190611f37565b61149c9190611f9e565b6114a7906004611f4a565b67ffffffffffffffff8111156114bf576114bf611aab565b6040519080825280601f01601f1916602001820160405280156114e9576020820181803683370190505b509050600182016020820185865187015b80821015611555576003820191508151603f8160121c168501518453600184019350603f81600c1c168501518453600184019350603f8160061c168501518453600184019350603f81168501518453506001830192506114fa565b50506003865106600181146115715760028114611584576106a1565b603d6001830353603d60028303536106a1565b603d6001830353509195945050505050565b60006001600160e01b031982166380ac58cd60e01b14806115c757506001600160e01b03198216635b5e139f60e01b145b8061041d57506301ffc9a760e01b6001600160e01b031983161461041d565b6115f0838361171a565b6115fd6000848484611619565b6105f15760405162461bcd60e51b815260040161055090612244565b60006001600160a01b0384163b1561170f57604051630a85bd0160e11b81526001600160a01b0385169063150b7a029061165d9033908990889088906004016122af565b6020604051808303816000875af1925050508015611698575060408051601f3d908101601f19168201909252611695918101906122ec565b60015b6116f5573d8080156116c6576040519150601f19603f3d011682016040523d82523d6000602084013e6116cb565b606091505b5080516000036116ed5760405162461bcd60e51b815260040161055090612244565b805181602001fd5b6001600160e01b031916630a85bd0160e11b149050611068565b506001949350505050565b6001600160a01b0382166117705760405162461bcd60e51b815260206004820181905260248201527f4552433732313a206d696e7420746f20746865207a65726f20616464726573736044820152606401610550565b6000818152600260205260409020546001600160a01b0316156117d55760405162461bcd60e51b815260206004820152601c60248201527f4552433732313a20746f6b656e20616c7265616479206d696e746564000000006044820152606401610550565b6000818152600260205260409020546001600160a01b03161561183a5760405162461bcd60e51b815260206004820152601c60248201527f4552433732313a20746f6b656e20616c7265616479206d696e746564000000006044820152606401610550565b6001600160a01b038216600081815260036020908152604080832080546001019055848352600290915280822080546001600160a01b0319168417905551839291907fddf252ad1be2c89b69c2b068fc378daa952ba7f163c4a11628f55a4df523b3ef908290a45050565b6001600160e01b031981168114610fa057600080fd5b6000602082840312156118cd57600080fd5b81356118d8816118a5565b9392505050565b60005b838110156118fa5781810151838201526020016118e2565b50506000910152565b6000815180845261191b8160208601602086016118df565b601f01601f19169290920160200192915050565b6020815260006118d86020830184611903565b60006020828403121561195457600080fd5b5035919050565b80356001600160a01b038116811461197257600080fd5b919050565b6000806040838503121561198a57600080fd5b6119938361195b565b946020939093013593505050565b6000806000606084860312156119b657600080fd5b6119bf8461195b565b92506119cd6020850161195b565b9150604084013590509250925092565b600080604083850312156119f057600080fd5b6119f98361195b565b9150602083013560038110611a0d57600080fd5b809150509250929050565b600060208284031215611a2a57600080fd5b6118d88261195b565b6020808252825182820181905260009190848201906040850190845b81811015611a6e57835160ff1683529284019291840191600101611a4f565b50909695505050505050565b60008060408385031215611a8d57600080fd5b611a968361195b565b915060208301358015158114611a0d57600080fd5b634e487b7160e01b600052604160045260246000fd5b60008060008060808587031215611ad757600080fd5b611ae08561195b565b9350611aee6020860161195b565b925060408501359150606085013567ffffffffffffffff80821115611b1257600080fd5b818701915087601f830112611b2657600080fd5b813581811115611b3857611b38611aab565b604051601f8201601f19908116603f01168101908382118183101715611b6057611b60611aab565b816040528281528a6020848701011115611b7957600080fd5b82602086016020830137600060208483010152809550505050505092959194509250565b634e487b7160e01b600052602160045260246000fd5b6060810160038510611bd557634e487b7160e01b600052602160045260246000fd5b93815260ff9283166020820152911660409091015290565b60008060408385031215611c0057600080fd5b611c098361195b565b9150611c176020840161195b565b90509250929050565b600181811c90821680611c3457607f821691505b602082108103611c5457634e487b7160e01b600052602260045260246000fd5b50919050565b6020808252602d908201527f4552433732313a2063616c6c6572206973206e6f7420746f6b656e206f776e6560408201526c1c881bdc88185c1c1c9bdd9959609a1b606082015260800190565b805169ffffffffffffffffffff8116811461197257600080fd5b600080600080600060a08688031215611cd957600080fd5b611ce286611ca7565b9450602086015193506040860151925060608601519150611d0560808701611ca7565b90509295509295909350565b634e487b7160e01b600052601160045260246000fd5b600060018201611d3957611d39611d11565b5060010190565b601f8211156105f157600081815260208120601f850160051c81016020861015611d675750805b601f850160051c820191505b81811015611d8657828155600101611d73565b505050505050565b815167ffffffffffffffff811115611da857611da8611aab565b611dbc81611db68454611c20565b84611d40565b602080601f831160018114611df15760008415611dd95750858301515b600019600386901b1c1916600185901b178555611d86565b600085815260208120601f198616915b82811015611e2057888601518255948401946001909101908401611e01565b5085821015611e3e5787850151600019600388901b60f8161c191681555b5050505050600190811b01905550565b818103611e59575050565b611e638254611c20565b67ffffffffffffffff811115611e7b57611e7b611aab565b611e8981611db68454611c20565b6000601f821160018114611ebd5760008315611ea55750848201545b600019600385901b1c1916600184901b178455610aa0565b600085815260209020601f19841690600086815260209020845b83811015611ef75782860154825560019586019590910190602001611ed7565b5085831015611e3e5793015460001960f8600387901b161c19169092555050600190811b01905550565b634e487b7160e01b600052603260045260246000fd5b8082018082111561041d5761041d611d11565b808202811582820484141761041d5761041d611d11565b634e487b7160e01b600052601260045260246000fd5b600082611f8657611f86611f61565b500690565b8181038181111561041d5761041d611d11565b600082611fad57611fad611f61565b500490565b600081611fc157611fc1611d11565b506000190190565b60008151611fdb8185602086016118df565b9290920192915050565b60008154611ff281611c20565b6001828116801561200a576001811461201f5761204e565b60ff198416875282151583028701945061204e565b8560005260208060002060005b858110156120455781548a82015290840190820161202c565b50505082870194505b5050505092915050565b693d913730b6b2911d101160b11b8152855160009061207e81600a850160208b016118df565b61088b60f21b600a918401918201819052691134b6b0b3b2911d101160b11b600c8301526120af6016830189611fe5565b9081527f2261747472696275746573223a205b7b2274726169745f74797065223a20224360028201526f03630b9b9911610113b30b63ab2911d160851b602282015290506121006032820187611fe5565b9050611f4b60f21b81527f7b2274726169745f74797065223a202241747461636b222c202276616c75652260028201526101d160f51b60228201526121ae6121a061215761219a612165612157602487018b611fc9565b611f4b60f21b815260020190565b7f7b2274726169745f74797065223a2022446566656e6365222c202276616c75658152620111d160ed1b602082015260230190565b87611fc9565b615d7d60f01b815260020190565b98975050505050505050565b7f646174613a6170706c69636174696f6e2f6a736f6e3b6261736536342c0000008152600082516121f281601d8501602087016118df565b91909101601d0192915050565b60208082526025908201527f4552433732313a207472616e736665722066726f6d20696e636f72726563742060408201526437bbb732b960d91b606082015260800190565b60208082526032908201527f4552433732313a207472616e7366657220746f206e6f6e20455243373231526560408201527131b2b4bb32b91034b6b83632b6b2b73a32b960711b606082015260800190565b60ff818116838216019081111561041d5761041d611d11565b6001600160a01b03858116825284166020820152604081018390526080606082018190526000906122e290830184611903565b9695505050505050565b6000602082840312156122fe57600080fd5b81516118d8816118a556fe4142434445464748494a4b4c4d4e4f505152535455565758595a6162636465666768696a6b6c6d6e6f707172737475767778797a303132333435363738392b2fa26469706673582212201e0ce597a00571134e132d2109af47201ed2d08a8bc6f3de892ef9e1a73ea90564736f6c6343000813003368747470733a2f2f667563687369612d64656665617465642d65726d696e652d3230382e6d7970696e6174612e636c6f75642f697066732f516d647a746a7379764b634c7a6a706341664e327957456772476334367641794b5455475a3661594643537475332f322e706e6768747470733a2f2f667563687369612d64656665617465642d65726d696e652d3230382e6d7970696e6174612e636c6f75642f697066732f516d647a746a7379764b634c7a6a706341664e327957456772476334367641794b5455475a3661594643537475332f332e706e6768747470733a2f2f667563687369612d64656665617465642d65726d696e652d3230382e6d7970696e6174612e636c6f75642f697066732f516d647a746a7379764b634c7a6a706341664e327957456772476334367641794b5455475a3661594643537475332f312e706e67",
  "devdoc": {
    "events": {
      "Approval(address,address,uint256)": {
        "details": "Emitted when `owner` enables `approved` to manage the `tokenId` token."
      },
      "ApprovalForAll(address,address,bool)": {
        "details": "Emitted when `owner` enables or disables (`approved`) `operator` to manage all of its assets."
      },
      "BatchMetadataUpdate(uint256,uint256)": {
        "details": "This event emits when the metadata of a range of tokens is changed. So that the third-party platforms such as NFT market could timely update the images and related attributes of the NFTs."
      },
      "MetadataUpdate(uint256)": {
        "details": "This event emits when the metadata of a token is changed. So that the third-party platforms such as NFT market could timely update the images and related attributes of the NFT."
      },
      "Transfer(address,address,uint256)": {
        "details": "Emitted when `tokenId` token is transferred from `from` to `to`."
      }
    },
    "kind": "dev",
    "methods": {
      "approve(address,uint256)": {
        "details": "See {IERC721-approve}."
      },
      "balanceOf(address)": {
        "details": "See {IERC721-balanceOf}."
      },
      "getApproved(uint256)": {
        "details": "See {IERC721-getApproved}."
      },
      "isApprovedForAll(address,address)": {
        "details": "See {IERC721-isApprovedForAll}."
      },
      "name()": {
        "details": "See {IERC721Metadata-name}."
      },
      "ownerOf(uint256)": {
        "details": "See {IERC721-ownerOf}."
      },
      "safeTransferFrom(address,address,uint256)": {
        "details": "See {IERC721-safeTransferFrom}."
      },
      "safeTransferFrom(address,address,uint256,bytes)": {
        "details": "See {IERC721-safeTransferFrom}."
      },
      "setApprovalForAll(address,bool)": {
        "details": "See {IERC721-setApprovalForAll}."
      },
      "symbol()": {
        "details": "See {IERC721Metadata-symbol}."
      },
      "transferFrom(address,address,uint256)": {
        "details": "See {IERC721-transferFrom}."
      }
    },
    "version": 1
  },
  "userdoc": {
    "kind": "user",
    "methods": {},
    "version": 1
  },
  "storageLayout": {
    "storage": [
      {
        "astId": 99,
        "contract": "contracts/MarketClash.sol:MarketClash",
        "label": "_name",
        "offset": 0,
        "slot": "0",
        "type": "t_string_storage"
      },
      {
        "astId": 101,
        "contract": "contracts/MarketClash.sol:MarketClash",
        "label": "_symbol",
        "offset": 0,
        "slot": "1",
        "type": "t_string_storage"
      },
      {
        "astId": 105,
        "contract": "contracts/MarketClash.sol:MarketClash",
        "label": "_owners",
        "offset": 0,
        "slot": "2",
        "type": "t_mapping(t_uint256,t_address)"
      },
      {
        "astId": 109,
        "contract": "contracts/MarketClash.sol:MarketClash",
        "label": "_balances",
        "offset": 0,
        "slot": "3",
        "type": "t_mapping(t_address,t_uint256)"
      },
      {
        "astId": 113,
        "contract": "contracts/MarketClash.sol:MarketClash",
        "label": "_tokenApprovals",
        "offset": 0,
        "slot": "4",
        "type": "t_mapping(t_uint256,t_address)"
      },
      {
        "astId": 119,
        "contract": "contracts/MarketClash.sol:MarketClash",
        "label": "_operatorApprovals",
        "offset": 0,
        "slot": "5",
        "type": "t_mapping(t_address,t_mapping(t_address,t_bool))"
      },
      {
        "astId": 1150,
        "contract": "contracts/MarketClash.sol:MarketClash",
        "label": "_tokenURIs",
        "offset": 0,
        "slot": "6",
        "type": "t_mapping(t_uint256,t_string_storage)"
      },
      {
        "astId": 3058,
        "contract": "contracts/MarketClash.sol:MarketClash",
        "label": "tokenIdCounter",
        "offset": 0,
        "slot": "7",
        "type": "t_struct(Counter)1722_storage"
      },
      {
        "astId": 3063,
        "contract": "contracts/MarketClash.sol:MarketClash",
        "label": "attributes",
        "offset": 0,
        "slot": "8",
        "type": "t_mapping(t_uint256,t_struct(Attr)3048_storage)"
      },
      {
        "astId": 3067,
        "contract": "contracts/MarketClash.sol:MarketClash",
        "label": "imageMapping",
        "offset": 0,
        "slot": "9",
        "type": "t_mapping(t_uint256,t_string_storage)"
      },
      {
        "astId": 3071,
        "contract": "contracts/MarketClash.sol:MarketClash",
        "label": "classMapping",
        "offset": 0,
        "slot": "10",
        "type": "t_mapping(t_uint256,t_string_storage)"
      },
      {
        "astId": 3075,
        "contract": "contracts/MarketClash.sol:MarketClash",
        "label": "tokenIdAttack",
        "offset": 0,
        "slot": "11",
        "type": "t_mapping(t_uint256,t_uint256)"
      },
      {
        "astId": 3079,
        "contract": "contracts/MarketClash.sol:MarketClash",
        "label": "tokenIdDefense",
        "offset": 0,
        "slot": "12",
        "type": "t_mapping(t_uint256,t_uint256)"
      },
      {
        "astId": 3082,
        "contract": "contracts/MarketClash.sol:MarketClash",
        "label": "priceFeedBtc",
        "offset": 0,
        "slot": "13",
        "type": "t_contract(AggregatorV3Interface)45"
      },
      {
        "astId": 3085,
        "contract": "contracts/MarketClash.sol:MarketClash",
        "label": "priceFeedETH",
        "offset": 0,
        "slot": "14",
        "type": "t_contract(AggregatorV3Interface)45"
      },
      {
        "astId": 3088,
        "contract": "contracts/MarketClash.sol:MarketClash",
        "label": "priceFeedLink",
        "offset": 0,
        "slot": "15",
        "type": "t_contract(AggregatorV3Interface)45"
      },
      {
        "astId": 3092,
        "contract": "contracts/MarketClash.sol:MarketClash",
        "label": "btcuscAddress",
        "offset": 0,
        "slot": "16",
        "type": "t_address"
      },
      {
        "astId": 3095,
        "contract": "contracts/MarketClash.sol:MarketClash",
        "label": "ethusdAddress",
        "offset": 0,
        "slot": "17",
        "type": "t_address"
      },
      {
        "astId": 3098,
        "contract": "contracts/MarketClash.sol:MarketClash",
        "label": "linkusdAddress",
        "offset": 0,
        "slot": "18",
        "type": "t_address"
      },
      {
        "astId": 3101,
        "contract": "contracts/MarketClash.sol:MarketClash",
        "label": "highMultiplier",
        "offset": 0,
        "slot": "19",
        "type": "t_uint256"
      },
      {
        "astId": 3104,
        "contract": "contracts/MarketClash.sol:MarketClash",
        "label": "mediumMultiplier",
        "offset": 0,
        "slot": "20",
        "type": "t_uint256"
      },
      {
        "astId": 3107,
        "contract": "contracts/MarketClash.sol:MarketClash",
        "label": "lowMultiplier",
        "offset": 0,
        "slot": "21",
        "type": "t_uint256"
      },
      {
        "astId": 3110,
        "contract": "contracts/MarketClash.sol:MarketClash",
        "label": "btcImage",
        "offset": 0,
        "slot": "22",
        "type": "t_string_storage"
      },
      {
        "astId": 3113,
        "contract": "contracts/MarketClash.sol:MarketClash",
        "label": "ethImage",
        "offset": 0,
        "slot": "23",
        "type": "t_string_storage"
      },
      {
        "astId": 3116,
        "contract": "contracts/MarketClash.sol:MarketClash",
        "label": "linkImage",
        "offset": 0,
        "slot": "24",
        "type": "t_string_storage"
      },
      {
        "astId": 3119,
        "contract": "contracts/MarketClash.sol:MarketClash",
        "label": "currentTokenId",
        "offset": 0,
        "slot": "25",
        "type": "t_uint256"
      }
    ],
    "types": {
      "t_address": {
        "encoding": "inplace",
        "label": "address",
        "numberOfBytes": "20"
      },
      "t_bool": {
        "encoding": "inplace",
        "label": "bool",
        "numberOfBytes": "1"
      },
      "t_contract(AggregatorV3Interface)45": {
        "encoding": "inplace",
        "label": "contract AggregatorV3Interface",
        "numberOfBytes": "20"
      },
      "t_enum(Class)3040": {
        "encoding": "inplace",
        "label": "enum MarketClash.Class",
        "numberOfBytes": "1"
      },
      "t_mapping(t_address,t_bool)": {
        "encoding": "mapping",
        "key": "t_address",
        "label": "mapping(address => bool)",
        "numberOfBytes": "32",
        "value": "t_bool"
      },
      "t_mapping(t_address,t_mapping(t_address,t_bool))": {
        "encoding": "mapping",
        "key": "t_address",
        "label": "mapping(address => mapping(address => bool))",
        "numberOfBytes": "32",
        "value": "t_mapping(t_address,t_bool)"
      },
      "t_mapping(t_address,t_uint256)": {
        "encoding": "mapping",
        "key": "t_address",
        "label": "mapping(address => uint256)",
        "numberOfBytes": "32",
        "value": "t_uint256"
      },
      "t_mapping(t_uint256,t_address)": {
        "encoding": "mapping",
        "key": "t_uint256",
        "label": "mapping(uint256 => address)",
        "numberOfBytes": "32",
        "value": "t_address"
      },
      "t_mapping(t_uint256,t_string_storage)": {
        "encoding": "mapping",
        "key": "t_uint256",
        "label": "mapping(uint256 => string)",
        "numberOfBytes": "32",
        "value": "t_string_storage"
      },
      "t_mapping(t_uint256,t_struct(Attr)3048_storage)": {
        "encoding": "mapping",
        "key": "t_uint256",
        "label": "mapping(uint256 => struct MarketClash.Attr)",
        "numberOfBytes": "32",
        "value": "t_struct(Attr)3048_storage"
      },
      "t_mapping(t_uint256,t_uint256)": {
        "encoding": "mapping",
        "key": "t_uint256",
        "label": "mapping(uint256 => uint256)",
        "numberOfBytes": "32",
        "value": "t_uint256"
      },
      "t_string_storage": {
        "encoding": "bytes",
        "label": "string",
        "numberOfBytes": "32"
      },
      "t_struct(Attr)3048_storage": {
        "encoding": "inplace",
        "label": "struct MarketClash.Attr",
        "members": [
          {
            "astId": 3043,
            "contract": "contracts/MarketClash.sol:MarketClash",
            "label": "Class",
            "offset": 0,
            "slot": "0",
            "type": "t_enum(Class)3040"
          },
          {
            "astId": 3045,
            "contract": "contracts/MarketClash.sol:MarketClash",
            "label": "attack",
            "offset": 1,
            "slot": "0",
            "type": "t_uint8"
          },
          {
            "astId": 3047,
            "contract": "contracts/MarketClash.sol:MarketClash",
            "label": "defence",
            "offset": 2,
            "slot": "0",
            "type": "t_uint8"
          }
        ],
        "numberOfBytes": "32"
      },
      "t_struct(Counter)1722_storage": {
        "encoding": "inplace",
        "label": "struct Counters.Counter",
        "members": [
          {
            "astId": 1721,
            "contract": "contracts/MarketClash.sol:MarketClash",
            "label": "_value",
            "offset": 0,
            "slot": "0",
            "type": "t_uint256"
          }
        ],
        "numberOfBytes": "32"
      },
      "t_uint256": {
        "encoding": "inplace",
        "label": "uint256",
        "numberOfBytes": "32"
      },
      "t_uint8": {
        "encoding": "inplace",
        "label": "uint8",
        "numberOfBytes": "1"
      }
    }
  }
}